{
  "address": "0x9ad8aD2458dD3D1B440F0216C78c354e84F8C75c",
  "abi": [
    {
      "inputs": [
        {
          "internalType": "address",
          "name": "limitOrderProtocol",
          "type": "address"
        },
        {
          "internalType": "contract IERC20",
          "name": "feeToken",
          "type": "address"
        },
        {
          "internalType": "contract IERC20",
          "name": "accessToken",
          "type": "address"
        },
        {
          "internalType": "address",
          "name": "owner",
          "type": "address"
        },
        {
          "internalType": "uint32",
          "name": "rescueDelaySrc",
          "type": "uint32"
        },
        {
          "internalType": "uint32",
          "name": "rescueDelayDst",
          "type": "uint32"
        }
      ],
      "stateMutability": "nonpayable",
      "type": "constructor"
    },
    {
      "inputs": [],
      "name": "AccessDenied",
      "type": "error"
    },
    {
      "inputs": [],
      "name": "ERC1167FailedCreateClone",
      "type": "error"
    },
    {
      "inputs": [],
      "name": "InsufficientEscrowBalance",
      "type": "error"
    },
    {
      "inputs": [],
      "name": "InvalidCreationTime",
      "type": "error"
    },
    {
      "inputs": [],
      "name": "InvalidPartialFill",
      "type": "error"
    },
    {
      "inputs": [],
      "name": "InvalidProof",
      "type": "error"
    },
    {
      "inputs": [],
      "name": "InvalidSecretsAmount",
      "type": "error"
    },
    {
      "inputs": [],
      "name": "MathOverflowedMulDiv",
      "type": "error"
    },
    {
      "inputs": [],
      "name": "NotEnoughCredit",
      "type": "error"
    },
    {
      "inputs": [],
      "name": "OnlyFeeBankAccess",
      "type": "error"
    },
    {
      "inputs": [],
      "name": "OnlyLimitOrderProtocol",
      "type": "error"
    },
    {
      "inputs": [],
      "name": "ResolverCanNotFillOrder",
      "type": "error"
    },
    {
      "inputs": [],
      "name": "SafeTransferFromFailed",
      "type": "error"
    },
    {
      "anonymous": false,
      "inputs": [
        {
          "indexed": false,
          "internalType": "address",
          "name": "escrow",
          "type": "address"
        },
        {
          "indexed": false,
          "internalType": "bytes32",
          "name": "hashlock",
          "type": "bytes32"
        },
        {
          "indexed": false,
          "internalType": "Address",
          "name": "taker",
          "type": "uint256"
        }
      ],
      "name": "DstEscrowCreated",
      "type": "event"
    },
    {
      "anonymous": false,
      "inputs": [
        {
          "components": [
            {
              "internalType": "bytes32",
              "name": "orderHash",
              "type": "bytes32"
            },
            {
              "internalType": "bytes32",
              "name": "hashlock",
              "type": "bytes32"
            },
            {
              "internalType": "Address",
              "name": "maker",
              "type": "uint256"
            },
            {
              "internalType": "Address",
              "name": "taker",
              "type": "uint256"
            },
            {
              "internalType": "Address",
              "name": "token",
              "type": "uint256"
            },
            {
              "internalType": "uint256",
              "name": "amount",
              "type": "uint256"
            },
            {
              "internalType": "uint256",
              "name": "safetyDeposit",
              "type": "uint256"
            },
            {
              "internalType": "Timelocks",
              "name": "timelocks",
              "type": "uint256"
            }
          ],
          "indexed": false,
          "internalType": "struct IBaseEscrow.Immutables",
          "name": "srcImmutables",
          "type": "tuple"
        },
        {
          "components": [
            {
              "internalType": "Address",
              "name": "maker",
              "type": "uint256"
            },
            {
              "internalType": "uint256",
              "name": "amount",
              "type": "uint256"
            },
            {
              "internalType": "Address",
              "name": "token",
              "type": "uint256"
            },
            {
              "internalType": "uint256",
              "name": "safetyDeposit",
              "type": "uint256"
            },
            {
              "internalType": "uint256",
              "name": "chainId",
              "type": "uint256"
            }
          ],
          "indexed": false,
          "internalType": "struct IEscrowFactory.DstImmutablesComplement",
          "name": "dstImmutablesComplement",
          "type": "tuple"
        }
      ],
      "name": "SrcEscrowCreated",
      "type": "event"
    },
    {
      "inputs": [],
      "name": "ESCROW_DST_IMPLEMENTATION",
      "outputs": [
        {
          "internalType": "address",
          "name": "",
          "type": "address"
        }
      ],
      "stateMutability": "view",
      "type": "function"
    },
    {
      "inputs": [],
      "name": "ESCROW_SRC_IMPLEMENTATION",
      "outputs": [
        {
          "internalType": "address",
          "name": "",
          "type": "address"
        }
      ],
      "stateMutability": "view",
      "type": "function"
    },
    {
      "inputs": [],
      "name": "FEE_BANK",
      "outputs": [
        {
          "internalType": "contract IFeeBank",
          "name": "",
          "type": "address"
        }
      ],
      "stateMutability": "view",
      "type": "function"
    },
    {
      "inputs": [
        {
          "components": [
            {
              "internalType": "bytes32",
              "name": "orderHash",
              "type": "bytes32"
            },
            {
              "internalType": "bytes32",
              "name": "hashlock",
              "type": "bytes32"
            },
            {
              "internalType": "Address",
              "name": "maker",
              "type": "uint256"
            },
            {
              "internalType": "Address",
              "name": "taker",
              "type": "uint256"
            },
            {
              "internalType": "Address",
              "name": "token",
              "type": "uint256"
            },
            {
              "internalType": "uint256",
              "name": "amount",
              "type": "uint256"
            },
            {
              "internalType": "uint256",
              "name": "safetyDeposit",
              "type": "uint256"
            },
            {
              "internalType": "Timelocks",
              "name": "timelocks",
              "type": "uint256"
            }
          ],
          "internalType": "struct IBaseEscrow.Immutables",
          "name": "immutables",
          "type": "tuple"
        }
      ],
      "name": "addressOfEscrowDst",
      "outputs": [
        {
          "internalType": "address",
          "name": "",
          "type": "address"
        }
      ],
      "stateMutability": "view",
      "type": "function"
    },
    {
      "inputs": [
        {
          "components": [
            {
              "internalType": "bytes32",
              "name": "orderHash",
              "type": "bytes32"
            },
            {
              "internalType": "bytes32",
              "name": "hashlock",
              "type": "bytes32"
            },
            {
              "internalType": "Address",
              "name": "maker",
              "type": "uint256"
            },
            {
              "internalType": "Address",
              "name": "taker",
              "type": "uint256"
            },
            {
              "internalType": "Address",
              "name": "token",
              "type": "uint256"
            },
            {
              "internalType": "uint256",
              "name": "amount",
              "type": "uint256"
            },
            {
              "internalType": "uint256",
              "name": "safetyDeposit",
              "type": "uint256"
            },
            {
              "internalType": "Timelocks",
              "name": "timelocks",
              "type": "uint256"
            }
          ],
          "internalType": "struct IBaseEscrow.Immutables",
          "name": "immutables",
          "type": "tuple"
        }
      ],
      "name": "addressOfEscrowSrc",
      "outputs": [
        {
          "internalType": "address",
          "name": "",
          "type": "address"
        }
      ],
      "stateMutability": "view",
      "type": "function"
    },
    {
      "inputs": [
        {
          "internalType": "address",
          "name": "account",
          "type": "address"
        }
      ],
      "name": "availableCredit",
      "outputs": [
        {
          "internalType": "uint256",
          "name": "",
          "type": "uint256"
        }
      ],
      "stateMutability": "view",
      "type": "function"
    },
    {
      "inputs": [
        {
          "components": [
            {
              "internalType": "bytes32",
              "name": "orderHash",
              "type": "bytes32"
            },
            {
              "internalType": "bytes32",
              "name": "hashlock",
              "type": "bytes32"
            },
            {
              "internalType": "Address",
              "name": "maker",
              "type": "uint256"
            },
            {
              "internalType": "Address",
              "name": "taker",
              "type": "uint256"
            },
            {
              "internalType": "Address",
              "name": "token",
              "type": "uint256"
            },
            {
              "internalType": "uint256",
              "name": "amount",
              "type": "uint256"
            },
            {
              "internalType": "uint256",
              "name": "safetyDeposit",
              "type": "uint256"
            },
            {
              "internalType": "Timelocks",
              "name": "timelocks",
              "type": "uint256"
            }
          ],
          "internalType": "struct IBaseEscrow.Immutables",
          "name": "dstImmutables",
          "type": "tuple"
        },
        {
          "internalType": "uint256",
          "name": "srcCancellationTimestamp",
          "type": "uint256"
        }
      ],
      "name": "createDstEscrow",
      "outputs": [],
      "stateMutability": "payable",
      "type": "function"
    },
    {
      "inputs": [
        {
          "internalType": "address",
          "name": "account",
          "type": "address"
        },
        {
          "internalType": "uint256",
          "name": "amount",
          "type": "uint256"
        }
      ],
      "name": "decreaseAvailableCredit",
      "outputs": [
        {
          "internalType": "uint256",
          "name": "allowance",
          "type": "uint256"
        }
      ],
      "stateMutability": "nonpayable",
      "type": "function"
    },
    {
      "inputs": [
        {
          "components": [
            {
              "internalType": "uint256",
              "name": "salt",
              "type": "uint256"
            },
            {
              "internalType": "Address",
              "name": "maker",
              "type": "uint256"
            },
            {
              "internalType": "Address",
              "name": "receiver",
              "type": "uint256"
            },
            {
              "internalType": "Address",
              "name": "makerAsset",
              "type": "uint256"
            },
            {
              "internalType": "Address",
              "name": "takerAsset",
              "type": "uint256"
            },
            {
              "internalType": "uint256",
              "name": "makingAmount",
              "type": "uint256"
            },
            {
              "internalType": "uint256",
              "name": "takingAmount",
              "type": "uint256"
            },
            {
              "internalType": "MakerTraits",
              "name": "makerTraits",
              "type": "uint256"
            }
          ],
          "internalType": "struct IOrderMixin.Order",
          "name": "order",
          "type": "tuple"
        },
        {
          "internalType": "bytes",
          "name": "",
          "type": "bytes"
        },
        {
          "internalType": "bytes32",
          "name": "",
          "type": "bytes32"
        },
        {
          "internalType": "address",
          "name": "",
          "type": "address"
        },
        {
          "internalType": "uint256",
          "name": "takingAmount",
          "type": "uint256"
        },
        {
          "internalType": "uint256",
          "name": "",
          "type": "uint256"
        },
        {
          "internalType": "bytes",
          "name": "extraData",
          "type": "bytes"
        }
      ],
      "name": "getMakingAmount",
      "outputs": [
        {
          "internalType": "uint256",
          "name": "",
          "type": "uint256"
        }
      ],
      "stateMutability": "view",
      "type": "function"
    },
    {
      "inputs": [
        {
          "components": [
            {
              "internalType": "uint256",
              "name": "salt",
              "type": "uint256"
            },
            {
              "internalType": "Address",
              "name": "maker",
              "type": "uint256"
            },
            {
              "internalType": "Address",
              "name": "receiver",
              "type": "uint256"
            },
            {
              "internalType": "Address",
              "name": "makerAsset",
              "type": "uint256"
            },
            {
              "internalType": "Address",
              "name": "takerAsset",
              "type": "uint256"
            },
            {
              "internalType": "uint256",
              "name": "makingAmount",
              "type": "uint256"
            },
            {
              "internalType": "uint256",
              "name": "takingAmount",
              "type": "uint256"
            },
            {
              "internalType": "MakerTraits",
              "name": "makerTraits",
              "type": "uint256"
            }
          ],
          "internalType": "struct IOrderMixin.Order",
          "name": "order",
          "type": "tuple"
        },
        {
          "internalType": "bytes",
          "name": "",
          "type": "bytes"
        },
        {
          "internalType": "bytes32",
          "name": "",
          "type": "bytes32"
        },
        {
          "internalType": "address",
          "name": "",
          "type": "address"
        },
        {
          "internalType": "uint256",
          "name": "makingAmount",
          "type": "uint256"
        },
        {
          "internalType": "uint256",
          "name": "",
          "type": "uint256"
        },
        {
          "internalType": "bytes",
          "name": "extraData",
          "type": "bytes"
        }
      ],
      "name": "getTakingAmount",
      "outputs": [
        {
          "internalType": "uint256",
          "name": "",
          "type": "uint256"
        }
      ],
      "stateMutability": "view",
      "type": "function"
    },
    {
      "inputs": [
        {
          "internalType": "address",
          "name": "account",
          "type": "address"
        },
        {
          "internalType": "uint256",
          "name": "amount",
          "type": "uint256"
        }
      ],
      "name": "increaseAvailableCredit",
      "outputs": [
        {
          "internalType": "uint256",
          "name": "allowance",
          "type": "uint256"
        }
      ],
      "stateMutability": "nonpayable",
      "type": "function"
    },
    {
      "inputs": [
        {
          "internalType": "bytes32",
          "name": "key",
          "type": "bytes32"
        }
      ],
      "name": "lastValidated",
      "outputs": [
        {
          "internalType": "uint256",
          "name": "index",
          "type": "uint256"
        },
        {
          "internalType": "bytes32",
          "name": "leaf",
          "type": "bytes32"
        }
      ],
      "stateMutability": "view",
      "type": "function"
    },
    {
      "inputs": [
        {
          "components": [
            {
              "internalType": "uint256",
              "name": "salt",
              "type": "uint256"
            },
            {
              "internalType": "Address",
              "name": "maker",
              "type": "uint256"
            },
            {
              "internalType": "Address",
              "name": "receiver",
              "type": "uint256"
            },
            {
              "internalType": "Address",
              "name": "makerAsset",
              "type": "uint256"
            },
            {
              "internalType": "Address",
              "name": "takerAsset",
              "type": "uint256"
            },
            {
              "internalType": "uint256",
              "name": "makingAmount",
              "type": "uint256"
            },
            {
              "internalType": "uint256",
              "name": "takingAmount",
              "type": "uint256"
            },
            {
              "internalType": "MakerTraits",
              "name": "makerTraits",
              "type": "uint256"
            }
          ],
          "internalType": "struct IOrderMixin.Order",
          "name": "order",
          "type": "tuple"
        },
        {
          "internalType": "bytes",
          "name": "extension",
          "type": "bytes"
        },
        {
          "internalType": "bytes32",
          "name": "orderHash",
          "type": "bytes32"
        },
        {
          "internalType": "address",
          "name": "taker",
          "type": "address"
        },
        {
          "internalType": "uint256",
          "name": "makingAmount",
          "type": "uint256"
        },
        {
          "internalType": "uint256",
          "name": "takingAmount",
          "type": "uint256"
        },
        {
          "internalType": "uint256",
          "name": "remainingMakingAmount",
          "type": "uint256"
        },
        {
          "internalType": "bytes",
          "name": "extraData",
          "type": "bytes"
        }
      ],
      "name": "postInteraction",
      "outputs": [],
      "stateMutability": "nonpayable",
      "type": "function"
    },
    {
      "inputs": [
        {
          "components": [
            {
              "internalType": "uint256",
              "name": "salt",
              "type": "uint256"
            },
            {
              "internalType": "Address",
              "name": "maker",
              "type": "uint256"
            },
            {
              "internalType": "Address",
              "name": "receiver",
              "type": "uint256"
            },
            {
              "internalType": "Address",
              "name": "makerAsset",
              "type": "uint256"
            },
            {
              "internalType": "Address",
              "name": "takerAsset",
              "type": "uint256"
            },
            {
              "internalType": "uint256",
              "name": "makingAmount",
              "type": "uint256"
            },
            {
              "internalType": "uint256",
              "name": "takingAmount",
              "type": "uint256"
            },
            {
              "internalType": "MakerTraits",
              "name": "makerTraits",
              "type": "uint256"
            }
          ],
          "internalType": "struct IOrderMixin.Order",
          "name": "order",
          "type": "tuple"
        },
        {
          "internalType": "bytes",
          "name": "extension",
          "type": "bytes"
        },
        {
          "internalType": "bytes32",
          "name": "orderHash",
          "type": "bytes32"
        },
        {
          "internalType": "address",
          "name": "taker",
          "type": "address"
        },
        {
          "internalType": "uint256",
          "name": "makingAmount",
          "type": "uint256"
        },
        {
          "internalType": "uint256",
          "name": "takingAmount",
          "type": "uint256"
        },
        {
          "internalType": "uint256",
          "name": "remainingMakingAmount",
          "type": "uint256"
        },
        {
          "internalType": "bytes",
          "name": "extraData",
          "type": "bytes"
        }
      ],
      "name": "preInteraction",
      "outputs": [],
      "stateMutability": "nonpayable",
      "type": "function"
    },
    {
      "inputs": [
        {
          "components": [
            {
              "internalType": "uint256",
              "name": "salt",
              "type": "uint256"
            },
            {
              "internalType": "Address",
              "name": "maker",
              "type": "uint256"
            },
            {
              "internalType": "Address",
              "name": "receiver",
              "type": "uint256"
            },
            {
              "internalType": "Address",
              "name": "makerAsset",
              "type": "uint256"
            },
            {
              "internalType": "Address",
              "name": "takerAsset",
              "type": "uint256"
            },
            {
              "internalType": "uint256",
              "name": "makingAmount",
              "type": "uint256"
            },
            {
              "internalType": "uint256",
              "name": "takingAmount",
              "type": "uint256"
            },
            {
              "internalType": "MakerTraits",
              "name": "makerTraits",
              "type": "uint256"
            }
          ],
          "internalType": "struct IOrderMixin.Order",
          "name": "",
          "type": "tuple"
        },
        {
          "internalType": "bytes",
          "name": "extension",
          "type": "bytes"
        },
        {
          "internalType": "bytes32",
          "name": "orderHash",
          "type": "bytes32"
        },
        {
          "internalType": "address",
          "name": "",
          "type": "address"
        },
        {
          "internalType": "uint256",
          "name": "",
          "type": "uint256"
        },
        {
          "internalType": "uint256",
          "name": "",
          "type": "uint256"
        },
        {
          "internalType": "uint256",
          "name": "",
          "type": "uint256"
        },
        {
          "internalType": "bytes",
          "name": "extraData",
          "type": "bytes"
        }
      ],
      "name": "takerInteraction",
      "outputs": [],
      "stateMutability": "nonpayable",
      "type": "function"
    }
  ],
  "transactionHash": "0xe953e4c843782f9bdd43d57e7eab9fb2aea6be3a30c8fbbc9fde6c8ed81a56dc",
  "args": [
    "0x0b9aD27E24A17e9cFE5eDD2455238612189F0A48",
    "0x9d42A3E42eb5CC7D47DeE5f74E15f48f31A9a691",
    "0x9d42A3E42eb5CC7D47DeE5f74E15f48f31A9a691",
    "0x622DfAaf7443aA6fE0b6b106D3a68CAD0754b749",
    691200,
    691200
  ],
  "numDeployments": 1,
  "solcInputHash": "151ca025e0eb3f6507b85580d4a552ec",
  "bytecode": "0x6101803462000310576001600160401b03601f62003bf438819003918201601f19168401919083831185841017620002fa578160c092869260409586528339810103126200031057620000528362000315565b92620000616020820162000315565b926200006f83830162000315565b6200007d6060840162000315565b926200009a60a062000092608084016200032a565b92016200032a565b96806080528551610dc59788820198828a10878b1117620002fa5762002e2f83393089526001600160a01b0390811660208a0152958616878901526000978190036060019088f08015620002f057851660a0528260c05260e052845190610baa8083019083821086831117620002dc5783926200013992869262002285863963ffffffff90911681526001600160a01b03909116602082015260400190565b039086f0958615620002d25783610100971687528451926108fe8085019185831090831117620002be5791849391620001929362001987863963ffffffff90911681526001600160a01b03909116602082015260400190565b039084f0928315620002b3575080610120931683526200023b620001f282865116763d602d80600a3d3981f3363d3d373d3d3d363d73000000906e5af43d82803e903d91602b57fd5bf36020528060115260881c17600052603760092090565b91610140928352845116763d602d80600a3d3981f3363d3d373d3d3d363d73000000906e5af43d82803e903d91602b57fd5bf36020528060115260881c17600052603760092090565b91610160928352519261164a94856200033d863960805185818161079f0152610fae015260a05185818161069c01528181610eb30152610f15015260c05185610dba015260e051856104640152518481816107170152610a9f0152518381816101e5015261041b0152518260f0015251816103df0152f35b8251903d90823e3d90fd5b634e487b7160e01b88526041600452602488fd5b84513d87823e3d90fd5b634e487b7160e01b89526041600452602489fd5b86513d89823e3d90fd5b634e487b7160e01b600052604160045260246000fd5b600080fd5b51906001600160a01b03821682036200031057565b519063ffffffff82168203620003105756fe60a080604052600436101561001357600080fd5b60006080526080513560e01c9081630986bdd514610f9b575080631d9671c314610f445780632ce26aeb14610efe5780633ee5ef1f14610e8f578063462ebde2146107835780635886216f146107465780637040f1731461070057806385eda2de14610678578063acf4ce5c14610641578063adf38ba11461044a578063ba55117714610404578063be58e91c146103b9578063d7ff8a8014610305578063dea024e41461012d5763fb6bd47e146100ca57600080fd5b3461012757610100806003193601126101275761011560209160405181600482372030907f0000000000000000000000000000000000000000000000000000000000000000906114c4565b6040516001600160a01b039091168152f35b60805180fd5b3660031901610120811261012757610100809112610127576001600160a01b036084358181168015929060c43580856102f3575b34036102e1576040516101738161119f565b600435815260243596876020830152604435604083015260643595866060840152608083015260a082019260a435845260c08301524260e01b60018060e01b0360e43516178060e08401526101d9610104359163ffffffff8160c01c169060e01c611169565b116102cf5761020991207f00000000000000000000000000000000000000000000000000000000000000006114e4565b941561024f575b7fc30e111dcc74fddc2c3a4d98ffb97adec4485c0a687946bf5b22c2a99c7ff96d6060868689876040519316835260208301526040820152a160805180f35b516040516323b872dd60e01b81523360048201526024810186905260448101919091526080519294939260209160649082855af190816102ab575b50156102995790918480610210565b60405163f405907160e01b8152600490fd5b90503d156102c7575060016080515114601f3d11165b8561028a565b3b15156102c1565b604051637a42074b60e11b8152600490fd5b6040516334f5151d60e01b8152600490fd5b6103009060a43590611169565b610161565b3461012757610324610316366110c5565b9550935050959350506111fe565b9060c08101359262989680928301908184116103895760a09161034691611140565b910135828102928184041490151715610389576103648282856112a9565b9282156103a1570961037c575b602090604051908152f35b6001810180911115610371575b634e487b7160e01b6080515260116004526024608051fd5b634e487b7160e01b6080515260126004526024608051fd5b3461012757610100806003193601126101275761011560209160405181600482372030907f0000000000000000000000000000000000000000000000000000000000000000906114c4565b3461012757608051366003190112610127576040517f00000000000000000000000000000000000000000000000000000000000000006001600160a01b03168152602090f35b346101275761045836611043565b509750939594935050507f00000000000000000000000000000000000000000000000000000000000000006001600160a01b03163303905061062f5761049d91611479565b60408051602080820195865292909301609f190135601081901b61ffff19169184019190915290926001600160f01b0392918316916104e981605e81015b03601f1981018352826111bc565b519020908435601e19863603018112156101275767ffffffffffffffff939086018035858111610127576005918160051b360388820113610127576040888a0135990135966040518981019167ffffffffffffffff60c01b8c60c01b16835289602883015260288252606082019082821090821117610619576040959493955251902092608051925b8284106105d5575050505016036105c35760018401809411610389576001928391604051956105a087611183565b865281860193845260805152526040608051209251835551910155608051608051f35b6040516309bde33960e01b8152600490fd5b92939192909184821b83018a013590818110156106055760805152895260016040608051205b9401929190610572565b9060805152895260016040608051206105fb565b634e487b7160e01b600052604160045260246000fd5b604051634ca8886760e01b8152600490fd5b3461012757602036600319011261012757600435608051526001602052604080608051206001815491015482519182526020820152f35b346101275760403660031901126101275761069161102d565b6001600160a01b03907f0000000000000000000000000000000000000000000000000000000000000000821633036106ee57166080515260805160205260206040608051206106e36024358254611176565b809155604051908152f35b60405163a454419960e01b8152600490fd5b3461012757608051366003190112610127576040517f00000000000000000000000000000000000000000000000000000000000000006001600160a01b03168152602090f35b34610127576020366003190112610127576001600160a01b0361076761102d565b1660805152608051602052602060406080512054604051908152f35b346101275761079136611043565b9598939793969294909390927f00000000000000000000000000000000000000000000000000000000000000006001600160a01b03163303610e7d5786609f1981011161038957609f198701908560a0198901831061038957600160f81b8061080360a0198c01609f198d018b61154c565b35161461081960a0198b01609f198c018a61154c565b608051903560fb1c9180610e25575b8560041161012757833560e01c6003198701600c850211610127576108568a85600c8102600489018561156e565b15610d12575b5050506014600319600c830286030111610b67575b50505050838601609f1901905060e0870135600160fe1b1615610b5f57358060f01c60028110610b4d5760408051602081018c815260109490941b61ffff19169181019190915261090792906108ca81605e81016104db565b5190206080515260016020526040608051209060206040516108eb81611183565b6001845494858352015491829101529360a08a0135908b6113e1565b15610b3b575b6040519761091a8961119f565b885260208801526020850135604088015260018060a01b03166060870152606084013560808701528460a0870152603f19838201013560801c60c08701524260e01b60018060e01b03601f198584010135161760e087015260408401356080515060018060a01b03811615600014610b36575060208401355b604051928360a081011067ffffffffffffffff60a08601111761061957610ac3947f0e534c62f0afd2fa0f0fa71198e8aa2d549f24daf2bb47de0d5486c7ce9288ca936101a09360a0870160405286526020860192835260408601605f198383010135815260608701916fffffffffffffffffffffffffffffffff603f1985830101351683526080880193607f19910101358352604051938b51855260208c0151602086015260408c0151604086015260608c0151606086015260808c0151608086015260a08c015160a086015260c08c015160c086015260e08c015160e086015261010097518886015251610120850152516101408401525161016083015251610180820152a184207f00000000000000000000000000000000000000000000000000000000000000006114e4565b9260c0843191015111928315610ae1575b5050506102e15760805180f35b608080516370a0823160e01b905260049190915251919250602091906024908290606001356001600160a01b03165afa60805151901560203d1017610b295710818080610ad4565b6040513d608051823e3d90fd5b610993565b604051633aace85d60e21b8152600490fd5b6040516310d629d360e01b8152600490fd5b90503561090d565b6bffffffffffffffffffffffff19600c82028381016004013582811694929160149088036003190110610cf5575b5050600c8202850360031981016004199091011161038957600c8202850360041901601411610127578260601c3b1561012757610ca68e60e0938f8f948e6018928e610c546040519e8f9d8e9c8d9c8d6323175ef160e11b90528d600482359101528d602460208301359101528d604460408301359101528d606460608301359101528d608460808301359101528d60a460a08301359101528d60c460c0830135910152013560e48d01526101e06101048d01526101e48c01916115f3565b6101248a01979097526001600160a01b03166101448901526101648801526101848701526101a486018c9052858403600319016101c487015260805199600c93909302928390038219019201016115f3565b03916080519060601c5af18015610b2957610cc5575b80808080610871565b67ffffffffffffffff8111610cdd5760405288610cbc565b634e487b7160e01b6080515260416004526024608051fd5b600c8402870360140360040160031b82901b161692508e80610b95565b42108015610d90575b610d7e57610d2b575b808061085c565b8015610d245760018060a01b03881680608051526080516020526040608051205490828210610d6c576080515260805160205203604060805120558d610d24565b6040516353fe9bc960e11b8152600490fd5b6040516379288a5360e11b8152600490fd5b506040516370a0823160e01b81526001600160a01b038a81166004830152602090829060249082907f0000000000000000000000000000000000000000000000000000000000000000165afa908115610b295760805191610df3575b5015610d1b565b90506020813d602011610e1d575b81610e0e602093836111bc565b81010312610127575138610dec565b3d9150610e01565b9450509050609f19890160041161012757863560e01c66038d7ea4c6800090808281020482148115171561038957610e678d610e6c9360a08f01359302611140565b6111de565b90600488019160a3198b0194610828565b60405163692d508360e11b8152600490fd5b3461012757604036600319011261012757610ea861102d565b6001600160a01b03907f0000000000000000000000000000000000000000000000000000000000000000821633036106ee5716608051526080516020526020604060805120602435815401809155604051908152f35b3461012757608051366003190112610127576040517f00000000000000000000000000000000000000000000000000000000000000006001600160a01b03168152602090f35b3461012757610f55610316366110c5565b906298968091828402938085048414901517156103895782018092116103895760209260a0610f8b610f939460c0850135611140565b9201356112a9565b604051908152f35b3461012757610fa936611043565b5050507f00000000000000000000000000000000000000000000000000000000000000006001600160a01b031633039650610feb955050505050505760805180f35b63692d508360e11b8152600490fd5b9181601f840112156110285782359167ffffffffffffffff8311611028576020838186019501011161102857565b600080fd5b600435906001600160a01b038216820361102857565b60031981016101e0811261102857610100136110285760049167ffffffffffffffff61010435818111611028578361107d91600401610ffa565b909390926101243592610144356001600160a01b03811681036110285792610164359261018435926101a435926101c435918211611028576110c191600401610ffa565b9091565b9060031982016101c0811261102857610100136110285760049167ffffffffffffffff9061010435828111611028578161110191600401610ffa565b909390926101243592610144356001600160a01b03811681036110285792610164359261018435926101a435918211611028576110c191600401610ffa565b8181029291811591840414171561115357565b634e487b7160e01b600052601160045260246000fd5b9190820180921161115357565b9190820391821161115357565b6040810190811067ffffffffffffffff82111761061957604052565b610100810190811067ffffffffffffffff82111761061957604052565b90601f8019910116810190811067ffffffffffffffff82111761061957604052565b81156111e8570490565b634e487b7160e01b600052601260045260246000fd5b908060031161102857813560e81c8160071161102857600383013560e01c90801580156112a1575b1561128a5750506000915b81600b1161102857600781013560e01c82600e116110285782601111611028576112779260101901916011810191600b600e83013560e81c92013560e81c810190611341565b81811115611283570390565b5050600090565b620f42409161129a9148026111de565b0491611231565b508115611226565b90918282029160001984820993838086109503948086039514611331578483111561131f5782910981600003821680920460028082600302188083028203028083028203028083028203028083028203028083028203028092029003029360018380600003040190848311900302920304170290565b60405163227bc15360e01b8152600490fd5b50509061133e92506111de565b90565b9193929091428110611354575050505090565b82939594924210156113d75790855b61137a575061133e939450820391429003026111de565b9060039086821161102857823560e81c906005928884116110285784013560f01c810194854211156113b757505092910194600419019485611363565b92509361133e9697508095508491935003934290030291420302016111de565b5060009450505050565b9291906113f7846113f28385611176565b611169565b60001991908281019081116111535783610e678661141493611140565b94810361142e575050505060028101809111611153571490565b808303611449575b5050505060018101809111611153571490565b6114539083611176565b9081019081116111535761146a92610e6791611140565b81146112835738808080611436565b919091602083106114bb5780359063ffffffff8260c01c169160e01c93601f190184116114aa578101602001920390565b6309605a0160e41b60005260046000fd5b50600091508190565b90605592600b92604051926040840152602083015281520160ff81532090565b6e5af43d82803e903d91602b57fd5bf390763d602d80600a3d3981f3363d3d373d3d3d363d7300000062ffffff8260881c161760005260781b17602052603760096000f5906001600160a01b0382161561153a57565b6040516330be1a3d60e21b8152600490fd5b90821015611558570190565b634e487b7160e01b600052603260045260246000fd5b9369ffffffffffffffffffff1692916000915b83831061159357505050505050600090565b600a9582871161102857600c968388116110285782013560f01c0195813560b01c86036115c65750505050505042101590565b95929394954284116115e7579295949360010192600b199092019101611581565b50505050505050600090565b908060209392818452848401376000828201840152601f01601f191601019056fea2646970667358221220a59aca2d89ac32c28ca38fc7a9b867efedc5590f33103149fce33e79671baebc64736f6c634300081700336101003461010f57601f6108fe38819003918201601f19168301916001600160401b0383118484101761011457808492604094855283398101031261010f5780519063ffffffff821680920361010f5760200151906001600160a01b038216820361010f573360c05260a0526080526e5af43d82803e903d91602b57fd5bf360205230601152763d602d80600a3d3981f3363d3d373d3d3d363d730000003060881c17600052603760092060e0526040516107d3908161012b82396080518161043d015260a051818181608a015261028f015260c0518181816101180152818161025801528181610379015261059c015260e05181818160ee0152818161022e0152818161034001526105720152f35b600080fd5b634e487b7160e01b600052604160045260246000fdfe608060408181526004918236101561001657600080fd5b60009260e08435811c9283630af97558146104115750826323305703146103a85782632dd310001461036357826334862b6a146103275782634649088b146101d15750816390d3252f146100b1575063f56cd69c1461007457600080fd5b346100ad57816003193601126100ad57602090517f00000000000000000000000000000000000000000000000000000000000000008152f35b5080fd5b8383346100ad57610100806003193601126101cd576001600160a01b0391606435831691338390036101bd57600b605591835181898237208351907f00000000000000000000000000000000000000000000000000000000000000008583015260208201527f000000000000000000000000000000000000000000000000000000000000000081520160ff81532083309116036101ae5761015360e435610672565b421061019f57509061016c9160a43591608435166106a2565b61017860c43533610727565b7f6e3be9294e58d10b9c8053cfd5e09871b67e442fe394d6b0870d336b9df984a98180a180f35b516337bf561360e11b81528490fd5b51635134a42560e11b81528490fd5b81516348f5c3ed60e01b81528690fd5b8280fd5b838591346101cd576101403660031901126101cd578335936001600160a01b038086169290919083870361032357602435926101008060431936011261031f578160a43516330361030f57600b60559188518160448237208851907f00000000000000000000000000000000000000000000000000000000000000008a83015260208201527f000000000000000000000000000000000000000000000000000000000000000081520160ff815320309116036103005761012435901c7f00000000000000000000000000000000000000000000000000000000000000000142106102f257506102e4817fc4474c2790e13695f6d2b6f1d8e164290b55370f87a542fd7711abe0a1bf40ac959633906106a2565b82519182526020820152a180f35b83516337bf561360e11b8152fd5b508351635134a42560e11b8152fd5b86516348f5c3ed60e01b81528490fd5b8780fd5b8580fd5b505050346100ad57816003193601126100ad57602090517f00000000000000000000000000000000000000000000000000000000000000008152f35b505050346100ad57816003193601126100ad57517f00000000000000000000000000000000000000000000000000000000000000006001600160a01b03168152602090f35b838591346101cd576103b9366104e6565b92909160608401356001600160a01b031633036101bd5763ffffffff8185013580921c9160801c1681018091116103fe57421061019f5750906103fb91610546565b80f35b634e487b7160e01b855260118652602485fd5b90859185346104e257610423366104e6565b6370a0823160e01b845233878501529390926020816024817f00000000000000000000000000000000000000000000000000000000000000006001600160a01b03165afa9081156104d85786916104a6575b50156101bd5763ffffffff8185013580921c9160a01c1681018091116103fe57421061019f5750906103fb91610546565b90506020813d6020116104d0575b816104c16020938361050e565b81010312610323575187610475565b3d91506104b4565b83513d88823e3d90fd5b8380fd5b906101206003198301126105095761010060043592602319011261050957602490565b600080fd5b90601f8019910116810190811067ffffffffffffffff82111761053057604052565b634e487b7160e01b600052604160045260246000fd5b9061055460e0820135610672565b421015610660576040906055600b83516101009081858237208451907f00000000000000000000000000000000000000000000000000000000000000008683015260208201527f000000000000000000000000000000000000000000000000000000000000000081520160ff8153206001600160a01b0390309082160361064f5783600052602060002060208301350361063e579161063760c08361062f60209660a07fe346f5c97a360db5188bfa5d3ec5f0583abde420c6ba4d08b6cfe61addc171059997013590808785013516906080850135166106a2565b013533610727565b51908152a1565b825163abab6bd760e01b8152600490fd5b8251635134a42560e11b8152600490fd5b6040516337bf561360e11b8152600490fd5b63ffffffff8160e01c9160c01c16810180911161068c5790565b634e487b7160e01b600052601160045260246000fd5b6001600160a01b03169190826106be576106bc9250610727565b565b9060446020926000926040519163a9059cbb60e01b83526004830152602482015282855af19081610704575b50156106f257565b60405163fb7f507960e01b8152600490fd5b90503d1561071f5750600160005114601f3d11165b386106ea565b3b1515610719565b60008080809481945af1903d15610797573d9067ffffffffffffffff82116107835760405191610761601f8201601f19166020018461050e565b825260203d92013e5b1561077157565b604051638a0332d560e01b8152600490fd5b634e487b7160e01b81526041600452602490fd5b5061076a56fea2646970667358221220d18f767d07896f51a4caaf9b59be29080e55f33b7bc47a580184f9dcda649ab964736f6c634300081700336101003461011757601f610baa38819003918201601f19168301916001600160401b0383118484101761011c5780849260409485528339810103126101175780519063ffffffff82168092036101175760200151906001600160a01b0382168203610117573360c05260a0526080526e5af43d82803e903d91602b57fd5bf360205230601152763d602d80600a3d3981f3363d3d373d3d3d363d730000003060881c17600052603760092060e052604051610a779081610133823960805181818161010001526105ea015260a05181818160a101526103cf015260c0518181816104c00152818161081f015281816108ad0152610928015260e051818181610487015281816107f40152818161088201526108fd0152f35b600080fd5b634e487b7160e01b600052604160045260246000fdfe608060408181526004918236101561001657600080fd5b60009260e0908435821c9283630af97558146105b15750826323305703146104ef5782632dd31000146104aa57826334862b6a1461046e5782634649088b146103795782636c10c0c81461027357826390d3252f1461021b578263daff233e146100c857505063f56cd69c1461008b57600080fd5b346100c457816003193601126100c457602090517f00000000000000000000000000000000000000000000000000000000000000008152f35b5080fd5b91509134610217576101003660031901126102175780516370a0823160e01b815233838201526001600160a01b0393906020816024817f000000000000000000000000000000000000000000000000000000000000000089165afa90811561020d5786916101d7575b50156101c95763ffffffff60e43580921c9160601c1681018091116101b65742106101a957836101768461016361086b565b60a4359080604435169060843516610962565b61018260c435336109cb565b7f6e3be9294e58d10b9c8053cfd5e09871b67e442fe394d6b0870d336b9df984a98180a180f35b516337bf561360e11b8152fd5b634e487b7160e01b855260118352602485fd5b50516348f5c3ed60e01b8152fd5b90506020813d602011610205575b816101f26020938361075e565b81010312610201575138610131565b8580fd5b3d91506101e5565b83513d88823e3d90fd5b8380fd5b9150503461026f5761010036600319011261026f576001600160a01b0391606435831633036102625761024f60e435610796565b42106101a957836101768461016361086b565b516348f5c3ed60e01b8152fd5b8280fd5b8490843461026f5761014036600319011261026f578135916001600160a01b039060243590828216820361020157610100366043190112610201578260a43516330361036b57610124356102c6816107c6565b421061035c576102d590610796565b42101561034e576102e46107dd565b848652602086206064350361034057509161032b7fe346f5c97a360db5188bfa5d3ec5f0583abde420c6ba4d08b6cfe61addc17105949260209460e4359160c43516610962565b61033861010435336109cb565b51908152a180f35b835163abab6bd760e01b8152fd5b83516337bf561360e11b8152fd5b5083516337bf561360e11b8152fd5b83516348f5c3ed60e01b8152fd5b8484833461026f5761014036600319011261026f576001600160a01b038435818116929083900361046a57602435916101003660431901126102015760a43516330361045a576103c76107dd565b61012435901c7f000000000000000000000000000000000000000000000000000000000000000001421061044a577fc4474c2790e13695f6d2b6f1d8e164290b55370f87a542fd7711abe0a1bf40ac939450811560001461043a5761042c81336109cb565b82519182526020820152a180f35b610445813384610962565b61042c565b82516337bf561360e11b81528590fd5b83516348f5c3ed60e01b81528690fd5b8480fd5b505050346100c457816003193601126100c457602090517f00000000000000000000000000000000000000000000000000000000000000008152f35b505050346100c457816003193601126100c457517f00000000000000000000000000000000000000000000000000000000000000006001600160a01b03168152602090f35b929150346102175761050036610736565b909390916001600160a01b0391906060840135831633036105a257830135610527816107c6565b421061035c5761053690610796565b42101561034e57610546836108e7565b8486526020862060208401350361034057509161033860c08361059a60209660a07fe346f5c97a360db5188bfa5d3ec5f0583abde420c6ba4d08b6cfe61addc1710599970135903390608085013516610962565b0135336109cb565b5083516348f5c3ed60e01b8152fd5b85918534610217576105c236610736565b6370a0823160e01b855233858501529560209491936001600160a01b039290919086816024817f000000000000000000000000000000000000000000000000000000000000000088165afa90811561072c5788916106fb575b50156106ec578088013580911c63ffffffff82881c1681018091116106d95742106106ca5761064990610796565b4210156106bc57610659876108e7565b83865284862085880135036106ae575060c08661059a6103389360a07fe346f5c97a360db5188bfa5d3ec5f0583abde420c6ba4d08b6cfe61addc17105999a0135908060608501351690608085013516610962565b825163abab6bd760e01b8152fd5b82516337bf561360e11b8152fd5b5082516337bf561360e11b8152fd5b634e487b7160e01b885260118352602488fd5b5082516348f5c3ed60e01b8152fd5b90508681813d8311610725575b610712818361075e565b8101031261072157518961061b565b8780fd5b503d610708565b85513d8a823e3d90fd5b906101206003198301126107595761010060043592602319011261075957602490565b600080fd5b90601f8019910116810190811067ffffffffffffffff82111761078057604052565b634e487b7160e01b600052604160045260246000fd5b63ffffffff8160e01c9160401c1681018091116107b05790565b634e487b7160e01b600052601160045260246000fd5b63ffffffff8160e01c911681018091116107b05790565b6055600b60405161010090816044823720604051907f0000000000000000000000000000000000000000000000000000000000000000604083015260208201527f000000000000000000000000000000000000000000000000000000000000000081520160ff815320306001600160a01b039091160361085957565b604051635134a42560e11b8152600490fd5b6055600b60405161010090816004823720604051907f0000000000000000000000000000000000000000000000000000000000000000604083015260208201527f000000000000000000000000000000000000000000000000000000000000000081520160ff815320306001600160a01b039091160361085957565b600b6055916040516101008092823720604051907f0000000000000000000000000000000000000000000000000000000000000000604083015260208201527f000000000000000000000000000000000000000000000000000000000000000081520160ff815320306001600160a01b039091160361085957565b9160446020926000926040519163a9059cbb60e01b83526004830152602482015282855af190816109a8575b501561099657565b60405163fb7f507960e01b8152600490fd5b90503d156109c35750600160005114601f3d11165b3861098e565b3b15156109bd565b60008080809481945af1903d15610a3b573d9067ffffffffffffffff8211610a275760405191610a05601f8201601f19166020018461075e565b825260203d92013e5b15610a1557565b604051638a0332d560e01b8152600490fd5b634e487b7160e01b81526041600452602490fd5b50610a0e56fea2646970667358221220d6d35da45008eeaeeaa7aa59016bbc7d6db528f635476dd1679c84dee14bec4464736f6c6343000817003360c03461013257601f610dc538819003918201601f19168301916001600160401b03831184841017610137578084926060946040528339810103126101325780516001600160a01b0380821682036101325760208301519281841690818503610132576040015182811680910361013257801561011957600080546001600160a01b03198116831782556040519416907f8be0079c531659141344cd1fd0a4f28419497f9722a3daafe3b4186f6b6457e09080a31561010a575060a052608052604051610c77908161014e823960805181818161023501528181610676015281816109ee0152610a6c015260a051818181610202015281816104f4015281816109a50152610b060152f35b63d92e233d60e01b8152600490fd5b604051631e4fbdf760e01b815260006004820152602490fd5b600080fd5b634e487b7160e01b600052604160045260246000fdfe6040608081526004908136101561001557600080fd5b600091823560e01c8063205c2878146105ff5780632e1a7d4d146105de5780632f4f21e2146105b557806332d323a5146105695780635886216f146104ae578063715018a61461045457806378e3214f146103485780638da5cb5b1461031c57806397a2cb641461019a578063b6b55f2514610179578063bfe917341461012e5763f2fde38b146100a557600080fd5b3461012a57602036600319011261012a576100be610628565b906100c7610bac565b6001600160a01b0391821692831561011457505082546001600160a01b0319811683178455167f8be0079c531659141344cd1fd0a4f28419497f9722a3daafe3b4186f6b6457e08380a380f35b51631e4fbdf760e01b8152908101849052602490fd5b8280fd5b5091346101765781600319360112610176576024359067ffffffffffffffff8211610176575060209261016761016f9236908301610643565b913533610671565b9051908152f35b80fd5b509134610176576020366003190112610176575061016f6020923533610a54565b50903461012a576020928360031936011261017657823567ffffffffffffffff80821161012a573660238301121561012a578185013590811161012a576024943660248360051b85010111610318579492916101f4610bac565b8295839460018060a01b03807f000000000000000000000000000000000000000000000000000000000000000016935b85881061025f578a8a8a61025982337f0000000000000000000000000000000000000000000000000000000000000000610bd8565b51908152f35b9091929394959698838a60051b83010135838116809103610314578089526001808d528a8a20548b51635886216f60e01b81528881018490529392918e8589818d5afa92831561030a578f908d946102ce575b600196508d5252818c8c20550301990196959493929190610224565b94958092939450813d8311610303575b6102e8818361093c565b810103126102ff57908e60019594939251936102b2565b8b80fd5b503d6102de565b8d513d8e823e3d90fd5b8880fd5b8380fd5b505034610344578160031936011261034457905490516001600160a01b039091168152602090f35b5080fd5b50903461012a578060031936011261012a5781356001600160a01b03811690818103610450576024359161037a610bac565b82610383578580f35b8015908115610432575b501561041e5750804710610410578380808093335af13d1561040b573d67ffffffffffffffff81116103f8578251906103d0601f8201601f19166020018361093c565b81528460203d92013e5b156103eb5750505b38808080808580f35b5163b12d13eb60e01b8152fd5b634e487b7160e01b855260418452602485fd5b6103da565b5051631e9acf1760e31b8152fd5b90915061042d92503390610bd8565b6103e2565b73eeeeeeeeeeeeeeeeeeeeeeeeeeeeeeeeeeeeeeee9150143861038d565b8480fd5b833461017657806003193601126101765761046d610bac565b80546001600160a01b03198116825581906001600160a01b03167f8be0079c531659141344cd1fd0a4f28419497f9722a3daafe3b4186f6b6457e08280a380f35b50919034610344576020928360031936011261012a57836104cd610628565b8351635886216f60e01b81526001600160a01b0391821693810193909352829060249082907f0000000000000000000000000000000000000000000000000000000000000000165afa92831561055e57809361052c575b505051908152f35b909192508382813d8311610557575b610545818361093c565b81010312610176575051903880610524565b503d61053b565b8251903d90823e3d90fd5b503461012a57606036600319011261012a57610583610628565b926044359067ffffffffffffffff82116101765750926105ab61016f92602095369101610643565b9160243590610671565b50503461034457806003193601126103445760209061016f6105d5610628565b60243590610a54565b509134610176576020366003190112610176575061016f6020923533610974565b50503461034457806003193601126103445760209061016f61061f610628565b60243590610974565b600435906001600160a01b038216820361063e57565b600080fd5b9181601f8401121561063e5782359167ffffffffffffffff831161063e576020838186019501011161063e57565b9290917f000000000000000000000000000000000000000000000000000000000000000090600090468061014414610926578061012c146109265761010414610911576e22d473030f116ddee9f6b43ac78ba35b604051928590816064146108a8575091600095918387969594604814610836578060e0146108145780610100146107f05780606014610761576101601461073e5750639fd5a6cf60e01b8352849160049181908584013701925af15b156107325761072f91610a54565b90565b6040513d6000823e3d90fd5b6302b67b5760e41b84526101649450859250906101609060048501375af1610721565b50908592506040602091610164966302b67b5760e41b875233600488015260248701526014816050880137841965ffffffffffff9080601484013560e01c0182166064890152601883013560e01c60848901523060a4890152601c83013560e01c011660c487015261010060e48701528161010487015282808201610124880137016101448501375af1610721565b50506323f2ebc360e21b835261010493859250906101009060048501375af1610721565b505063d505accf60e01b835260e4938592509060e09060048501375af1610721565b505084915092610104936323f2ebc360e21b845233600485015230602485015260206008602883013592803560e01c60448801528519600482013560e01c016064880152600160848801528360ff1c601b0160a48801520160c48601376001600160ff1b031660e48401525af1610721565b955050509083809360e49363d505accf60e01b845233600485015230602485015260206024604483013592828160448901376000198382013560e01c0160648801528360ff1c601b0160848801520160a48601376001600160ff1b031660c48401525af1610721565b6e225e31d15943971f47ad3022f714fa6106c5565b506e225e31d15943971f47ad3022f714fa6106c5565b90601f8019910116810190811067ffffffffffffffff82111761095e57604052565b634e487b7160e01b600052604160045260246000fd5b6040516342f6d16f60e11b815233600482015260248101839052600093929091602083604481886001600160a01b037f0000000000000000000000000000000000000000000000000000000000000000165af1928315610a49578593610a14575b506040610a1293953381526001602052208281540390557f0000000000000000000000000000000000000000000000000000000000000000610bd8565b565b92506020833d602011610a41575b81610a2f6020938361093c565b810103126104505791519160406109d5565b3d9150610a22565b6040513d87823e3d90fd5b6001600160a01b0391818316908115610b9a576064937f00000000000000000000000000000000000000000000000000000000000000006000604051906323b872dd60e01b8252336004830152306024830152846044830152602097889282855af19081610b77575b5015610b6557600092835260018552604080842080548401905551633ee5ef1f60e01b81526001600160a01b0394909416600485015260248401919091528391839160449183917f0000000000000000000000000000000000000000000000000000000000000000165af191821561073257600092610b3b57505090565b90809250813d8311610b5e575b610b52818361093c565b8101031261063e575190565b503d610b48565b60405163f405907160e01b8152600490fd5b90503d15610b925750600160005114601f3d11165b38610abd565b3b1515610b8c565b60405163d92e233d60e01b8152600490fd5b6000546001600160a01b03163303610bc057565b60405163118cdaa760e01b8152336004820152602490fd5b9160446020926000926040519163a9059cbb60e01b83526004830152602482015282855af19081610c1e575b5015610c0c57565b60405163fb7f507960e01b8152600490fd5b90503d15610c395750600160005114601f3d11165b38610c04565b3b1515610c3356fea2646970667358221220f2277cbc585cd22f12c90b2b5d6964ea6f5e4c0d87e6b226919f6d14487d425f64736f6c63430008170033",
  "devdoc": {
    "custom:security-contact": "security@1inch.io",
    "errors": {
      "ERC1167FailedCreateClone()": [
        {
          "details": "A clone instance deployment failed."
        }
      ],
      "MathOverflowedMulDiv()": [
        {
          "details": "Muldiv operation overflow."
        }
      ]
    },
    "events": {
      "DstEscrowCreated(address,bytes32,uint256)": {
        "params": {
          "escrow": "The address of the created escrow.",
          "hashlock": "The hash of the secret.",
          "taker": "The address of the taker."
        }
      },
      "SrcEscrowCreated((bytes32,bytes32,uint256,uint256,uint256,uint256,uint256,uint256),(uint256,uint256,uint256,uint256,uint256))": {
        "params": {
          "dstImmutablesComplement": "Additional immutables related to the escrow contract on the destination chain.",
          "srcImmutables": "The immutables of the escrow contract that are used in deployment on the source chain."
        }
      }
    },
    "kind": "dev",
    "methods": {
      "takerInteraction((uint256,uint256,uint256,uint256,uint256,uint256,uint256,uint256),bytes,bytes32,address,uint256,uint256,uint256,bytes)": {
        "details": "Verifies the proof and stores the last validated index and hashed secret. Only Limit Order Protocol can call this function."
      }
    },
    "title": "Escrow Factory contract",
    "version": 1
  },
  "userdoc": {
    "events": {
      "DstEscrowCreated(address,bytes32,uint256)": {
        "notice": "Emitted on EscrowDst deployment."
      },
      "SrcEscrowCreated((bytes32,bytes32,uint256,uint256,uint256,uint256,uint256,uint256),(uint256,uint256,uint256,uint256,uint256))": {
        "notice": "Emitted on EscrowSrc deployment to recreate EscrowSrc and EscrowDst immutables off-chain."
      }
    },
    "kind": "user",
    "methods": {
      "ESCROW_DST_IMPLEMENTATION()": {
        "notice": "See {IEscrowFactory-ESCROW_DST_IMPLEMENTATION}."
      },
      "ESCROW_SRC_IMPLEMENTATION()": {
        "notice": "See {IEscrowFactory-ESCROW_SRC_IMPLEMENTATION}."
      },
      "FEE_BANK()": {
        "notice": "See {IFeeBankCharger-feeBank}."
      },
      "addressOfEscrowDst((bytes32,bytes32,uint256,uint256,uint256,uint256,uint256,uint256))": {
        "notice": "See {IEscrowFactory-addressOfEscrowDst}."
      },
      "addressOfEscrowSrc((bytes32,bytes32,uint256,uint256,uint256,uint256,uint256,uint256))": {
        "notice": "See {IEscrowFactory-addressOfEscrowSrc}."
      },
      "availableCredit(address)": {
        "notice": "See {IFeeBankCharger-availableCredit}."
      },
      "createDstEscrow((bytes32,bytes32,uint256,uint256,uint256,uint256,uint256,uint256),uint256)": {
        "notice": "See {IEscrowFactory-createDstEscrow}."
      },
      "decreaseAvailableCredit(address,uint256)": {
        "notice": "See {IFeeBankCharger-decreaseAvailableCredit}."
      },
      "getMakingAmount((uint256,uint256,uint256,uint256,uint256,uint256,uint256,uint256),bytes,bytes32,address,uint256,uint256,bytes)": {
        "notice": "See {IAmountGetter-getMakingAmount}"
      },
      "getTakingAmount((uint256,uint256,uint256,uint256,uint256,uint256,uint256,uint256),bytes,bytes32,address,uint256,uint256,bytes)": {
        "notice": "See {IAmountGetter-getTakingAmount}"
      },
      "increaseAvailableCredit(address,uint256)": {
        "notice": "See {IFeeBankCharger-increaseAvailableCredit}."
      },
      "lastValidated(bytes32)": {
        "notice": "See {IMerkleStorageInvalidator-lastValidated}."
      },
      "postInteraction((uint256,uint256,uint256,uint256,uint256,uint256,uint256,uint256),bytes,bytes32,address,uint256,uint256,uint256,bytes)": {
        "notice": "See {IPostInteraction-postInteraction}"
      },
      "preInteraction((uint256,uint256,uint256,uint256,uint256,uint256,uint256,uint256),bytes,bytes32,address,uint256,uint256,uint256,bytes)": {
        "notice": "See {IPreInteraction-preInteraction}"
      },
      "takerInteraction((uint256,uint256,uint256,uint256,uint256,uint256,uint256,uint256),bytes,bytes32,address,uint256,uint256,uint256,bytes)": {
        "notice": "See {ITakerInteraction-takerInteraction}."
      }
    },
    "notice": "Contract to create escrow contracts for cross-chain atomic swap.",
    "version": 1
  },
  "storageLayout": {
    "storage": [
      {
        "astId": 23562,
        "contract": "contracts/1inch/cross-chain-swap/EscrowFactory.sol:EscrowFactory",
        "label": "_creditAllowance",
        "offset": 0,
        "slot": "0",
        "type": "t_mapping(t_address,t_uint256)"
      },
      {
        "astId": 13081,
        "contract": "contracts/1inch/cross-chain-swap/EscrowFactory.sol:EscrowFactory",
        "label": "lastValidated",
        "offset": 0,
        "slot": "1",
        "type": "t_mapping(t_bytes32,t_struct(ValidationData)13482_storage)"
      }
    ],
    "types": {
      "t_address": {
        "encoding": "inplace",
        "label": "address",
        "numberOfBytes": "20"
      },
      "t_bytes32": {
        "encoding": "inplace",
        "label": "bytes32",
        "numberOfBytes": "32"
      },
      "t_mapping(t_address,t_uint256)": {
        "encoding": "mapping",
        "key": "t_address",
        "label": "mapping(address => uint256)",
        "numberOfBytes": "32",
        "value": "t_uint256"
      },
      "t_mapping(t_bytes32,t_struct(ValidationData)13482_storage)": {
        "encoding": "mapping",
        "key": "t_bytes32",
        "label": "mapping(bytes32 => struct IMerkleStorageInvalidator.ValidationData)",
        "numberOfBytes": "32",
        "value": "t_struct(ValidationData)13482_storage"
      },
      "t_struct(ValidationData)13482_storage": {
        "encoding": "inplace",
        "label": "struct IMerkleStorageInvalidator.ValidationData",
        "members": [
          {
            "astId": 13479,
            "contract": "contracts/1inch/cross-chain-swap/EscrowFactory.sol:EscrowFactory",
            "label": "index",
            "offset": 0,
            "slot": "0",
            "type": "t_uint256"
          },
          {
            "astId": 13481,
            "contract": "contracts/1inch/cross-chain-swap/EscrowFactory.sol:EscrowFactory",
            "label": "leaf",
            "offset": 0,
            "slot": "1",
            "type": "t_bytes32"
          }
        ],
        "numberOfBytes": "64"
      },
      "t_uint256": {
        "encoding": "inplace",
        "label": "uint256",
        "numberOfBytes": "32"
      }
    }
  }
}