{
  "address": "0x0b9aD27E24A17e9cFE5eDD2455238612189F0A48",
  "abi": [
    {
      "inputs": [
        {
          "internalType": "contract IWETH",
          "name": "_weth",
          "type": "address"
        }
      ],
      "stateMutability": "nonpayable",
      "type": "constructor"
    },
    {
      "inputs": [],
      "name": "AdvanceEpochFailed",
      "type": "error"
    },
    {
      "inputs": [],
      "name": "ArbitraryStaticCallFailed",
      "type": "error"
    },
    {
      "inputs": [],
      "name": "BadSignature",
      "type": "error"
    },
    {
      "inputs": [],
      "name": "BitInvalidatedOrder",
      "type": "error"
    },
    {
      "inputs": [],
      "name": "ETHTransferFailed",
      "type": "error"
    },
    {
      "inputs": [],
      "name": "EnforcedPause",
      "type": "error"
    },
    {
      "inputs": [],
      "name": "EpochManagerAndBitInvalidatorsAreIncompatible",
      "type": "error"
    },
    {
      "inputs": [],
      "name": "EthDepositRejected",
      "type": "error"
    },
    {
      "inputs": [],
      "name": "ExpectedPause",
      "type": "error"
    },
    {
      "inputs": [],
      "name": "InvalidMsgValue",
      "type": "error"
    },
    {
      "inputs": [],
      "name": "InvalidPermit2Transfer",
      "type": "error"
    },
    {
      "inputs": [],
      "name": "InvalidShortString",
      "type": "error"
    },
    {
      "inputs": [],
      "name": "InvalidatedOrder",
      "type": "error"
    },
    {
      "inputs": [],
      "name": "MakingAmountTooLow",
      "type": "error"
    },
    {
      "inputs": [],
      "name": "MismatchArraysLengths",
      "type": "error"
    },
    {
      "inputs": [],
      "name": "OrderExpired",
      "type": "error"
    },
    {
      "inputs": [],
      "name": "OrderIsNotSuitableForMassInvalidation",
      "type": "error"
    },
    {
      "inputs": [
        {
          "internalType": "address",
          "name": "owner",
          "type": "address"
        }
      ],
      "name": "OwnableInvalidOwner",
      "type": "error"
    },
    {
      "inputs": [
        {
          "internalType": "address",
          "name": "account",
          "type": "address"
        }
      ],
      "name": "OwnableUnauthorizedAccount",
      "type": "error"
    },
    {
      "inputs": [],
      "name": "PartialFillNotAllowed",
      "type": "error"
    },
    {
      "inputs": [],
      "name": "Permit2TransferAmountTooHigh",
      "type": "error"
    },
    {
      "inputs": [],
      "name": "PredicateIsNotTrue",
      "type": "error"
    },
    {
      "inputs": [],
      "name": "PrivateOrder",
      "type": "error"
    },
    {
      "inputs": [],
      "name": "ReentrancyDetected",
      "type": "error"
    },
    {
      "inputs": [],
      "name": "RemainingInvalidatedOrder",
      "type": "error"
    },
    {
      "inputs": [],
      "name": "SafeTransferFailed",
      "type": "error"
    },
    {
      "inputs": [],
      "name": "SafeTransferFromFailed",
      "type": "error"
    },
    {
      "inputs": [
        {
          "internalType": "bool",
          "name": "success",
          "type": "bool"
        },
        {
          "internalType": "bytes",
          "name": "res",
          "type": "bytes"
        }
      ],
      "name": "SimulationResults",
      "type": "error"
    },
    {
      "inputs": [
        {
          "internalType": "string",
          "name": "str",
          "type": "string"
        }
      ],
      "name": "StringTooLong",
      "type": "error"
    },
    {
      "inputs": [],
      "name": "SwapWithZeroAmount",
      "type": "error"
    },
    {
      "inputs": [],
      "name": "TakingAmountExceeded",
      "type": "error"
    },
    {
      "inputs": [],
      "name": "TakingAmountTooHigh",
      "type": "error"
    },
    {
      "inputs": [],
      "name": "TransferFromMakerToTakerFailed",
      "type": "error"
    },
    {
      "inputs": [],
      "name": "TransferFromTakerToMakerFailed",
      "type": "error"
    },
    {
      "inputs": [],
      "name": "WrongSeriesNonce",
      "type": "error"
    },
    {
      "anonymous": false,
      "inputs": [
        {
          "indexed": true,
          "internalType": "address",
          "name": "maker",
          "type": "address"
        },
        {
          "indexed": false,
          "internalType": "uint256",
          "name": "slotIndex",
          "type": "uint256"
        },
        {
          "indexed": false,
          "internalType": "uint256",
          "name": "slotValue",
          "type": "uint256"
        }
      ],
      "name": "BitInvalidatorUpdated",
      "type": "event"
    },
    {
      "anonymous": false,
      "inputs": [],
      "name": "EIP712DomainChanged",
      "type": "event"
    },
    {
      "anonymous": false,
      "inputs": [
        {
          "indexed": true,
          "internalType": "address",
          "name": "maker",
          "type": "address"
        },
        {
          "indexed": false,
          "internalType": "uint256",
          "name": "series",
          "type": "uint256"
        },
        {
          "indexed": false,
          "internalType": "uint256",
          "name": "newEpoch",
          "type": "uint256"
        }
      ],
      "name": "EpochIncreased",
      "type": "event"
    },
    {
      "anonymous": false,
      "inputs": [
        {
          "indexed": false,
          "internalType": "bytes32",
          "name": "orderHash",
          "type": "bytes32"
        }
      ],
      "name": "OrderCancelled",
      "type": "event"
    },
    {
      "anonymous": false,
      "inputs": [
        {
          "indexed": false,
          "internalType": "bytes32",
          "name": "orderHash",
          "type": "bytes32"
        },
        {
          "indexed": false,
          "internalType": "uint256",
          "name": "remainingAmount",
          "type": "uint256"
        }
      ],
      "name": "OrderFilled",
      "type": "event"
    },
    {
      "anonymous": false,
      "inputs": [
        {
          "indexed": true,
          "internalType": "address",
          "name": "previousOwner",
          "type": "address"
        },
        {
          "indexed": true,
          "internalType": "address",
          "name": "newOwner",
          "type": "address"
        }
      ],
      "name": "OwnershipTransferred",
      "type": "event"
    },
    {
      "anonymous": false,
      "inputs": [
        {
          "indexed": false,
          "internalType": "address",
          "name": "account",
          "type": "address"
        }
      ],
      "name": "Paused",
      "type": "event"
    },
    {
      "anonymous": false,
      "inputs": [
        {
          "indexed": false,
          "internalType": "address",
          "name": "account",
          "type": "address"
        }
      ],
      "name": "Unpaused",
      "type": "event"
    },
    {
      "inputs": [],
      "name": "DOMAIN_SEPARATOR",
      "outputs": [
        {
          "internalType": "bytes32",
          "name": "",
          "type": "bytes32"
        }
      ],
      "stateMutability": "view",
      "type": "function"
    },
    {
      "inputs": [
        {
          "internalType": "uint96",
          "name": "series",
          "type": "uint96"
        },
        {
          "internalType": "uint256",
          "name": "amount",
          "type": "uint256"
        }
      ],
      "name": "advanceEpoch",
      "outputs": [],
      "stateMutability": "nonpayable",
      "type": "function"
    },
    {
      "inputs": [
        {
          "internalType": "uint256",
          "name": "offsets",
          "type": "uint256"
        },
        {
          "internalType": "bytes",
          "name": "data",
          "type": "bytes"
        }
      ],
      "name": "and",
      "outputs": [
        {
          "internalType": "bool",
          "name": "",
          "type": "bool"
        }
      ],
      "stateMutability": "view",
      "type": "function"
    },
    {
      "inputs": [
        {
          "internalType": "address",
          "name": "target",
          "type": "address"
        },
        {
          "internalType": "bytes",
          "name": "data",
          "type": "bytes"
        }
      ],
      "name": "arbitraryStaticCall",
      "outputs": [
        {
          "internalType": "uint256",
          "name": "",
          "type": "uint256"
        }
      ],
      "stateMutability": "view",
      "type": "function"
    },
    {
      "inputs": [
        {
          "internalType": "address",
          "name": "maker",
          "type": "address"
        },
        {
          "internalType": "uint256",
          "name": "slot",
          "type": "uint256"
        }
      ],
      "name": "bitInvalidatorForOrder",
      "outputs": [
        {
          "internalType": "uint256",
          "name": "",
          "type": "uint256"
        }
      ],
      "stateMutability": "view",
      "type": "function"
    },
    {
      "inputs": [
        {
          "internalType": "MakerTraits",
          "name": "makerTraits",
          "type": "uint256"
        },
        {
          "internalType": "uint256",
          "name": "additionalMask",
          "type": "uint256"
        }
      ],
      "name": "bitsInvalidateForOrder",
      "outputs": [],
      "stateMutability": "nonpayable",
      "type": "function"
    },
    {
      "inputs": [
        {
          "internalType": "MakerTraits",
          "name": "makerTraits",
          "type": "uint256"
        },
        {
          "internalType": "bytes32",
          "name": "orderHash",
          "type": "bytes32"
        }
      ],
      "name": "cancelOrder",
      "outputs": [],
      "stateMutability": "nonpayable",
      "type": "function"
    },
    {
      "inputs": [
        {
          "internalType": "MakerTraits[]",
          "name": "makerTraits",
          "type": "uint256[]"
        },
        {
          "internalType": "bytes32[]",
          "name": "orderHashes",
          "type": "bytes32[]"
        }
      ],
      "name": "cancelOrders",
      "outputs": [],
      "stateMutability": "nonpayable",
      "type": "function"
    },
    {
      "inputs": [
        {
          "internalType": "bytes",
          "name": "predicate",
          "type": "bytes"
        }
      ],
      "name": "checkPredicate",
      "outputs": [
        {
          "internalType": "bool",
          "name": "",
          "type": "bool"
        }
      ],
      "stateMutability": "view",
      "type": "function"
    },
    {
      "inputs": [],
      "name": "eip712Domain",
      "outputs": [
        {
          "internalType": "bytes1",
          "name": "fields",
          "type": "bytes1"
        },
        {
          "internalType": "string",
          "name": "name",
          "type": "string"
        },
        {
          "internalType": "string",
          "name": "version",
          "type": "string"
        },
        {
          "internalType": "uint256",
          "name": "chainId",
          "type": "uint256"
        },
        {
          "internalType": "address",
          "name": "verifyingContract",
          "type": "address"
        },
        {
          "internalType": "bytes32",
          "name": "salt",
          "type": "bytes32"
        },
        {
          "internalType": "uint256[]",
          "name": "extensions",
          "type": "uint256[]"
        }
      ],
      "stateMutability": "view",
      "type": "function"
    },
    {
      "inputs": [
        {
          "internalType": "address",
          "name": "maker",
          "type": "address"
        },
        {
          "internalType": "uint96",
          "name": "series",
          "type": "uint96"
        }
      ],
      "name": "epoch",
      "outputs": [
        {
          "internalType": "uint256",
          "name": "",
          "type": "uint256"
        }
      ],
      "stateMutability": "view",
      "type": "function"
    },
    {
      "inputs": [
        {
          "internalType": "address",
          "name": "maker",
          "type": "address"
        },
        {
          "internalType": "uint256",
          "name": "series",
          "type": "uint256"
        },
        {
          "internalType": "uint256",
          "name": "makerEpoch",
          "type": "uint256"
        }
      ],
      "name": "epochEquals",
      "outputs": [
        {
          "internalType": "bool",
          "name": "",
          "type": "bool"
        }
      ],
      "stateMutability": "view",
      "type": "function"
    },
    {
      "inputs": [
        {
          "internalType": "uint256",
          "name": "value",
          "type": "uint256"
        },
        {
          "internalType": "bytes",
          "name": "data",
          "type": "bytes"
        }
      ],
      "name": "eq",
      "outputs": [
        {
          "internalType": "bool",
          "name": "",
          "type": "bool"
        }
      ],
      "stateMutability": "view",
      "type": "function"
    },
    {
      "inputs": [
        {
          "components": [
            {
              "internalType": "uint256",
              "name": "salt",
              "type": "uint256"
            },
            {
              "internalType": "Address",
              "name": "maker",
              "type": "uint256"
            },
            {
              "internalType": "Address",
              "name": "receiver",
              "type": "uint256"
            },
            {
              "internalType": "Address",
              "name": "makerAsset",
              "type": "uint256"
            },
            {
              "internalType": "Address",
              "name": "takerAsset",
              "type": "uint256"
            },
            {
              "internalType": "uint256",
              "name": "makingAmount",
              "type": "uint256"
            },
            {
              "internalType": "uint256",
              "name": "takingAmount",
              "type": "uint256"
            },
            {
              "internalType": "MakerTraits",
              "name": "makerTraits",
              "type": "uint256"
            }
          ],
          "internalType": "struct IOrderMixin.Order",
          "name": "order",
          "type": "tuple"
        },
        {
          "internalType": "bytes",
          "name": "signature",
          "type": "bytes"
        },
        {
          "internalType": "uint256",
          "name": "amount",
          "type": "uint256"
        },
        {
          "internalType": "TakerTraits",
          "name": "takerTraits",
          "type": "uint256"
        }
      ],
      "name": "fillContractOrder",
      "outputs": [
        {
          "internalType": "uint256",
          "name": "",
          "type": "uint256"
        },
        {
          "internalType": "uint256",
          "name": "",
          "type": "uint256"
        },
        {
          "internalType": "bytes32",
          "name": "",
          "type": "bytes32"
        }
      ],
      "stateMutability": "nonpayable",
      "type": "function"
    },
    {
      "inputs": [
        {
          "components": [
            {
              "internalType": "uint256",
              "name": "salt",
              "type": "uint256"
            },
            {
              "internalType": "Address",
              "name": "maker",
              "type": "uint256"
            },
            {
              "internalType": "Address",
              "name": "receiver",
              "type": "uint256"
            },
            {
              "internalType": "Address",
              "name": "makerAsset",
              "type": "uint256"
            },
            {
              "internalType": "Address",
              "name": "takerAsset",
              "type": "uint256"
            },
            {
              "internalType": "uint256",
              "name": "makingAmount",
              "type": "uint256"
            },
            {
              "internalType": "uint256",
              "name": "takingAmount",
              "type": "uint256"
            },
            {
              "internalType": "MakerTraits",
              "name": "makerTraits",
              "type": "uint256"
            }
          ],
          "internalType": "struct IOrderMixin.Order",
          "name": "order",
          "type": "tuple"
        },
        {
          "internalType": "bytes",
          "name": "signature",
          "type": "bytes"
        },
        {
          "internalType": "uint256",
          "name": "amount",
          "type": "uint256"
        },
        {
          "internalType": "TakerTraits",
          "name": "takerTraits",
          "type": "uint256"
        },
        {
          "internalType": "bytes",
          "name": "args",
          "type": "bytes"
        }
      ],
      "name": "fillContractOrderArgs",
      "outputs": [
        {
          "internalType": "uint256",
          "name": "",
          "type": "uint256"
        },
        {
          "internalType": "uint256",
          "name": "",
          "type": "uint256"
        },
        {
          "internalType": "bytes32",
          "name": "",
          "type": "bytes32"
        }
      ],
      "stateMutability": "nonpayable",
      "type": "function"
    },
    {
      "inputs": [
        {
          "components": [
            {
              "internalType": "uint256",
              "name": "salt",
              "type": "uint256"
            },
            {
              "internalType": "Address",
              "name": "maker",
              "type": "uint256"
            },
            {
              "internalType": "Address",
              "name": "receiver",
              "type": "uint256"
            },
            {
              "internalType": "Address",
              "name": "makerAsset",
              "type": "uint256"
            },
            {
              "internalType": "Address",
              "name": "takerAsset",
              "type": "uint256"
            },
            {
              "internalType": "uint256",
              "name": "makingAmount",
              "type": "uint256"
            },
            {
              "internalType": "uint256",
              "name": "takingAmount",
              "type": "uint256"
            },
            {
              "internalType": "MakerTraits",
              "name": "makerTraits",
              "type": "uint256"
            }
          ],
          "internalType": "struct IOrderMixin.Order",
          "name": "order",
          "type": "tuple"
        },
        {
          "internalType": "bytes32",
          "name": "r",
          "type": "bytes32"
        },
        {
          "internalType": "bytes32",
          "name": "vs",
          "type": "bytes32"
        },
        {
          "internalType": "uint256",
          "name": "amount",
          "type": "uint256"
        },
        {
          "internalType": "TakerTraits",
          "name": "takerTraits",
          "type": "uint256"
        }
      ],
      "name": "fillOrder",
      "outputs": [
        {
          "internalType": "uint256",
          "name": "",
          "type": "uint256"
        },
        {
          "internalType": "uint256",
          "name": "",
          "type": "uint256"
        },
        {
          "internalType": "bytes32",
          "name": "",
          "type": "bytes32"
        }
      ],
      "stateMutability": "payable",
      "type": "function"
    },
    {
      "inputs": [
        {
          "components": [
            {
              "internalType": "uint256",
              "name": "salt",
              "type": "uint256"
            },
            {
              "internalType": "Address",
              "name": "maker",
              "type": "uint256"
            },
            {
              "internalType": "Address",
              "name": "receiver",
              "type": "uint256"
            },
            {
              "internalType": "Address",
              "name": "makerAsset",
              "type": "uint256"
            },
            {
              "internalType": "Address",
              "name": "takerAsset",
              "type": "uint256"
            },
            {
              "internalType": "uint256",
              "name": "makingAmount",
              "type": "uint256"
            },
            {
              "internalType": "uint256",
              "name": "takingAmount",
              "type": "uint256"
            },
            {
              "internalType": "MakerTraits",
              "name": "makerTraits",
              "type": "uint256"
            }
          ],
          "internalType": "struct IOrderMixin.Order",
          "name": "order",
          "type": "tuple"
        },
        {
          "internalType": "bytes32",
          "name": "r",
          "type": "bytes32"
        },
        {
          "internalType": "bytes32",
          "name": "vs",
          "type": "bytes32"
        },
        {
          "internalType": "uint256",
          "name": "amount",
          "type": "uint256"
        },
        {
          "internalType": "TakerTraits",
          "name": "takerTraits",
          "type": "uint256"
        },
        {
          "internalType": "bytes",
          "name": "args",
          "type": "bytes"
        }
      ],
      "name": "fillOrderArgs",
      "outputs": [
        {
          "internalType": "uint256",
          "name": "",
          "type": "uint256"
        },
        {
          "internalType": "uint256",
          "name": "",
          "type": "uint256"
        },
        {
          "internalType": "bytes32",
          "name": "",
          "type": "bytes32"
        }
      ],
      "stateMutability": "payable",
      "type": "function"
    },
    {
      "inputs": [
        {
          "internalType": "uint256",
          "name": "value",
          "type": "uint256"
        },
        {
          "internalType": "bytes",
          "name": "data",
          "type": "bytes"
        }
      ],
      "name": "gt",
      "outputs": [
        {
          "internalType": "bool",
          "name": "",
          "type": "bool"
        }
      ],
      "stateMutability": "view",
      "type": "function"
    },
    {
      "inputs": [
        {
          "components": [
            {
              "internalType": "uint256",
              "name": "salt",
              "type": "uint256"
            },
            {
              "internalType": "Address",
              "name": "maker",
              "type": "uint256"
            },
            {
              "internalType": "Address",
              "name": "receiver",
              "type": "uint256"
            },
            {
              "internalType": "Address",
              "name": "makerAsset",
              "type": "uint256"
            },
            {
              "internalType": "Address",
              "name": "takerAsset",
              "type": "uint256"
            },
            {
              "internalType": "uint256",
              "name": "makingAmount",
              "type": "uint256"
            },
            {
              "internalType": "uint256",
              "name": "takingAmount",
              "type": "uint256"
            },
            {
              "internalType": "MakerTraits",
              "name": "makerTraits",
              "type": "uint256"
            }
          ],
          "internalType": "struct IOrderMixin.Order",
          "name": "order",
          "type": "tuple"
        }
      ],
      "name": "hashOrder",
      "outputs": [
        {
          "internalType": "bytes32",
          "name": "",
          "type": "bytes32"
        }
      ],
      "stateMutability": "view",
      "type": "function"
    },
    {
      "inputs": [
        {
          "internalType": "uint96",
          "name": "series",
          "type": "uint96"
        }
      ],
      "name": "increaseEpoch",
      "outputs": [],
      "stateMutability": "nonpayable",
      "type": "function"
    },
    {
      "inputs": [
        {
          "internalType": "uint256",
          "name": "value",
          "type": "uint256"
        },
        {
          "internalType": "bytes",
          "name": "data",
          "type": "bytes"
        }
      ],
      "name": "lt",
      "outputs": [
        {
          "internalType": "bool",
          "name": "",
          "type": "bool"
        }
      ],
      "stateMutability": "view",
      "type": "function"
    },
    {
      "inputs": [
        {
          "internalType": "bytes",
          "name": "data",
          "type": "bytes"
        }
      ],
      "name": "not",
      "outputs": [
        {
          "internalType": "bool",
          "name": "",
          "type": "bool"
        }
      ],
      "stateMutability": "view",
      "type": "function"
    },
    {
      "inputs": [
        {
          "internalType": "uint256",
          "name": "offsets",
          "type": "uint256"
        },
        {
          "internalType": "bytes",
          "name": "data",
          "type": "bytes"
        }
      ],
      "name": "or",
      "outputs": [
        {
          "internalType": "bool",
          "name": "",
          "type": "bool"
        }
      ],
      "stateMutability": "view",
      "type": "function"
    },
    {
      "inputs": [],
      "name": "owner",
      "outputs": [
        {
          "internalType": "address",
          "name": "",
          "type": "address"
        }
      ],
      "stateMutability": "view",
      "type": "function"
    },
    {
      "inputs": [],
      "name": "pause",
      "outputs": [],
      "stateMutability": "nonpayable",
      "type": "function"
    },
    {
      "inputs": [],
      "name": "paused",
      "outputs": [
        {
          "internalType": "bool",
          "name": "",
          "type": "bool"
        }
      ],
      "stateMutability": "view",
      "type": "function"
    },
    {
      "inputs": [
        {
          "internalType": "bytes",
          "name": "permit",
          "type": "bytes"
        },
        {
          "internalType": "bytes",
          "name": "action",
          "type": "bytes"
        }
      ],
      "name": "permitAndCall",
      "outputs": [],
      "stateMutability": "payable",
      "type": "function"
    },
    {
      "inputs": [
        {
          "internalType": "address",
          "name": "maker",
          "type": "address"
        },
        {
          "internalType": "bytes32",
          "name": "orderHash",
          "type": "bytes32"
        }
      ],
      "name": "rawRemainingInvalidatorForOrder",
      "outputs": [
        {
          "internalType": "uint256",
          "name": "",
          "type": "uint256"
        }
      ],
      "stateMutability": "view",
      "type": "function"
    },
    {
      "inputs": [
        {
          "internalType": "address",
          "name": "maker",
          "type": "address"
        },
        {
          "internalType": "bytes32",
          "name": "orderHash",
          "type": "bytes32"
        }
      ],
      "name": "remainingInvalidatorForOrder",
      "outputs": [
        {
          "internalType": "uint256",
          "name": "",
          "type": "uint256"
        }
      ],
      "stateMutability": "view",
      "type": "function"
    },
    {
      "inputs": [],
      "name": "renounceOwnership",
      "outputs": [],
      "stateMutability": "nonpayable",
      "type": "function"
    },
    {
      "inputs": [
        {
          "internalType": "address",
          "name": "target",
          "type": "address"
        },
        {
          "internalType": "bytes",
          "name": "data",
          "type": "bytes"
        }
      ],
      "name": "simulate",
      "outputs": [],
      "stateMutability": "nonpayable",
      "type": "function"
    },
    {
      "inputs": [
        {
          "internalType": "address",
          "name": "newOwner",
          "type": "address"
        }
      ],
      "name": "transferOwnership",
      "outputs": [],
      "stateMutability": "nonpayable",
      "type": "function"
    },
    {
      "inputs": [],
      "name": "unpause",
      "outputs": [],
      "stateMutability": "nonpayable",
      "type": "function"
    },
    {
      "stateMutability": "payable",
      "type": "receive"
    }
  ],
  "transactionHash": "0x5a014337c35722279e1179ce1502109c4942631bb3a1f5ef39e8b316a8d66f61",
  "args": [
    "0x9d42A3E42eb5CC7D47DeE5f74E15f48f31A9a691"
  ],
  "numDeployments": 1,
  "solcInputHash": "151ca025e0eb3f6507b85580d4a552ec",
  "bytecode": "0x6101a0346200027a576001600160401b0390601f6200446d38819003918201601f1916830192919084841183851017620002645781602092849260409687528339810103126200027a57516001600160a01b0391828216908183036200027a578051906200006d826200027f565b601a825260208201907f31696e6368204c696d6974204f726465722050726f746f636f6c0000000000008252805196620000a7886200027f565b6001885260208801600d60fa1b8152620000c1856200029b565b93610120948552620000d38a6200046e565b95610140968752519020988960e05251902061010098818a524660a05283519160208301917f8b73c3c69bb8fe3d512ecc4cf759cc79239f7b179b0ffacaa9a75d522b39400f83528584015260608301524660808301523060a083015260a0825260c0820192828410908411176200026457828452815190206080523060c05233156200024d575050600354905195339082167f8be0079c531659141344cd1fd0a4f28419497f9722a3daafe3b4186f6b6457e0600080a36001600160a81b0319163360ff60a01b191617600355610160928352610180938452613e5195866200061c873960805186612f90015260a0518661305b015260c05186612f5a015260e05186612fdf0152518561300501525184611e0c01525183611e3501525182601d01525181818161041b015281816104aa01528181610685015281816106d70152818161073d0152818161080b0152818161093a015281816110c5015281816119760152818161234c015281816123db01526124fd0152f35b631e4fbdf760e01b8252600060c490910152602490fd5b634e487b7160e01b600052604160045260246000fd5b600080fd5b604081019081106001600160401b038211176200026457604052565b805160209190828110156200033a575090601f825111620002d95780825192015190808310620002ca57501790565b82600019910360031b1b161790565b90604051809263305a27a960e01b82528060048301528251908160248401526000935b82851062000320575050604492506000838284010152601f80199101168101030190fd5b8481018201518686016044015293810193859350620002fc565b6001600160401b03811162000264576000928354926001938481811c9116801562000463575b838210146200044f57601f811162000419575b5081601f8411600114620003b257509282939183928694620003a6575b50501b916000199060031b1c191617905560ff90565b01519250388062000390565b919083601f1981168780528488209488905b88838310620003fe5750505010620003e4575b505050811b01905560ff90565b015160001960f88460031b161c19169055388080620003d7565b858701518855909601959485019487935090810190620003c4565b85805284601f848820920160051c820191601f860160051c015b8281106200044357505062000373565b87815501859062000433565b634e487b7160e01b86526022600452602486fd5b90607f169062000360565b805160209081811015620004fc5750601f8251116200049b5780825192015190808310620002ca57501790565b90604051809263305a27a960e01b82528060048301528251908160248401526000935b828510620004e2575050604492506000838284010152601f80199101168101030190fd5b8481018201518686016044015293810193859350620004be565b9192916001600160401b038111620002645760019182548381811c9116801562000610575b82821014620005fa57601f8111620005c1575b5080601f83116001146200057457508192939460009262000568575b5050600019600383901b1c191690821b17905560ff90565b01519050388062000550565b90601f198316958460005282600020926000905b888210620005a95750508385969710620003e457505050811b01905560ff90565b80878596829496860151815501950193019062000588565b8360005283601f83600020920160051c820191601f850160051c015b828110620005ed57505062000534565b60008155018490620005dd565b634e487b7160e01b600052602260045260246000fd5b90607f16906200052156fe608080604052600436101561005f575b50361561001b57600080fd5b7f00000000000000000000000000000000000000000000000000000000000000006001600160a01b0316330361004d57005b604051631b10b0f960e01b8152600490fd5b60003560e01c90816305b1ea0314612aae575080630d2c7c1614612a07578063143e86a7146129bc57806315169dec1461296c5780633644e515146129495780633f4ba83a146128d7578063435b9789146128755780634f38e2b81461284457806356a758681461214d5780635816d723146120b65780635c975abb146120905780636fe7b0ba1461205f578063715018a6146120025780637426114514611fe9578063802b2ef114611f785780638456cb5914611f1657806384b0196e14611df657806389e7c65014611d5b5780638da5cb5b14611d325780639fda64bd146117fe578063b68fb020146117dd578063bd61951d14611782578063bf15fcd814611748578063bf797959146116f2578063bfa75143146116d9578063c2a4075314611691578063c3cf804314611615578063ca4ece22146115d9578063cc713a0414610f29578063ce3d710a14610edb578063f2fde38b14610e52578063f497df751461023a5763fcea9e4e146101d7573861000f565b34610235576040366003190112610235576101f0612b65565b6024356001600160601b0381168103610235576001600160601b0360a01b9060a01b169060018060a01b03161760005260026020526020604060002054604051908152f35b600080fd5b36600319016101a0811261023557610100136102355761012435610184356001600160401b03811161023557610277610281913690600401612b7b565b90610164356130ad565b9461029261028d612f57565b613143565b9361029c85613194565b9260009260a4358514610d08575b506102b3613589565b6102bd85836137b9565b9015610cff575069ffffffffffffffffffff8060e435168015918215610cf3575b505015610ce15764ffffffffff8060e43560501c168015159081610cd7575b50610cc55760e435600160fa1b16610c56575b5084610c05575b61016435600160ff1b1615610b4d57836101443510600014610b465761014435975b889761034888878c8a88613991565b99610164356001600160b81b03169081610aec575b50505b60e435600160ff1b16151580610ae0575b610ace5789890215610abc5761038860e435612f11565b15610a8e576024356001600160a01b0316600090815260046020908152604080832060e435608081901c63ffffffff168552928190529220549190600160789190911c60ff161b80831614610a7c5763ffffffff60e43560801c16600052602052600160ff60e43560781c161b176040600020555b60e435600160fc1b166109bb575b6064356001600160a01b039081167f000000000000000000000000000000000000000000000000000000000000000090911614806109a9575b80156109a357305b8a60e435600160f81b161561096457506104668987613c62565b905061083457610489908b906001600160a01b0360243581169060643516613a94565b610933575b50601381116108a5575b50506001600160a01b036084358116907f0000000000000000000000000000000000000000000000000000000000000000168114808061089c575b156107b55750508634106107a35786341161077a575b60e435600160f71b161561067357818080808a610504613b6c565b5af161050e612e80565b50156106615785935b60e435600160fb1b16610586575b505050604061055961058294937ffec331350fce78ba658e082a71da20ac9f8d798a99b3c79681c8440cbfe77e0793613349565b8151908482526020820152a1604051938493846040919493926060820195825260208201520152565b0390f35b90919293506105958183613cc3565b9091906024356001600160a01b0316818460138211610635575b50506001600160a01b031692833b1561063157858995936105ef8296948b948b8f6040519b8c9a8b998a986323175ef160e11b8a52339260048b01613284565b03925af18015610626579085939291610609575b80610525565b8192935061061690612d2c565b6106235790818492610603565b80fd5b6040513d84823e3d90fd5b8580fd5b8195508093506106459250612c8a565b60601c9083601411610631576014019260131901908a806105af565b60405163b12d13eb60e01b8152600490fd5b630d0e30db60e41b825281806004818a7f00000000000000000000000000000000000000000000000000000000000000005af11561076d5760208260446106b8613b6c565b60405163a9059cbb60e01b81526004810191909152602481018b9052827f00000000000000000000000000000000000000000000000000000000000000006001600160a01b03165af180610725575b15610713578593610517565b60405163fb7f507960e01b8152600490fd5b503d1561073b576001825114601f3d1116610707565b7f00000000000000000000000000000000000000000000000000000000000000006001600160a01b03163b1515610707565b50604051903d90823e3d90fd5b818080808a3403335af161078c612e80565b506104e95760405163b12d13eb60e01b8152600490fd5b604051631841b4e160e01b8152600490fd5b949094346107a3578061088b575b801561087e57305b61016435600160fc1b1615610846576107e48385613c93565b905061083457896107f8918a983390613a94565b156105175761082f610808613b6c565b897f0000000000000000000000000000000000000000000000000000000000000000613b1a565b610517565b6040516301577e8360e51b8152600490fd5b61086091968a6108568587613c93565b9390923390613a3f565b1561086c5786946107f8565b60405163478a520560e01b8152600490fd5b610886613b6c565b6107cb565b5060e435600160f71b1615156107c3565b503415156104d3565b6108af8183612c8a565b60601c918160141161092f57823b1561092f57839260148680946108fa8c958f8f8e918e916040519c8d9b8c9a8b9963adf38ba160e01b8b5260131901970195339260048b01613284565b03925af1801561092457908391156104985761091590612d2c565b610920578188610498565b5080fd5b6040513d85823e3d90fd5b8480fd5b61095e90897f0000000000000000000000000000000000000000000000000000000000000000613b1a565b8961048e565b61098c916109728b89613c62565b9290916001600160a01b0360243581169060643516613a3f565b610489575b604051630e1407e960e31b8152600490fd5b8161044c565b5061016435600160fe1b161515610444565b6109c58785613c2f565b6001600160a01b036024358116828460138211610a50575b50508181163b15610235578b60008f938f96610a1a8f91978f9885998f996040519c8d9b8c9a8b98630986bdd560e01b8a52339260048b01613284565b0393165af18015610a4457610a30575b5061040b565b610a3b919550612d2c565b6000938a610a2a565b6040513d6000823e3d90fd5b819550809450610a609250612c8a565b60601c9183601411610235576014019260131901918e806109dd565b60405163527b154b60e11b8152600490fd5b60018060a01b03602435166000526005602052604060002088600052602052888603196040600020556103fd565b604051637dd2d13b60e11b8152600490fd5b6040516323bc005f60e21b8152600490fd5b5060a435891415610371565b610144358103610b1757508a11610b05575b8a8061035d565b60405163fb8ae12960e01b8152600490fd5b610b2e90610b28610144358e6131fb565b926131fb565b1015610afe5760405163fb8ae12960e01b8152600490fd5b8397610339565b6101443597610b5f87868b89876138da565b97858911610bd3575b610164356001600160b81b031680610b81575b50610360565b610144358b03610baa578910610b98575b8a610b7b565b60405163240f51c960e11b8152600490fd5b610bbb8b610b28610144358d6131fb565b1115610b925760405163240f51c960e11b8152600490fd5b985096508396610be68786808987613991565b98610144358a1115610b68575b604051637f902a9360e01b8152600490fd5b610c0f8583613be2565b80610c1c575b5050610317565b610c269130612f31565b81610c4b575b5015610c39578880610c15565b604051635b314e0160e11b8152600490fd5b600191501489610c2c565b610c6160e435612f11565b610cb35760e43560a081811c8316901b6024356001600160a01b03161760009081526002602052604090205460789190911c90911603610ca15788610310565b6040516371f4582960e11b8152600490fd5b604051639e744e2560e01b8152600490fd5b6040516362b439dd60e11b8152600490fd5b905042118a6102fd565b604051636a6fed7f60e11b8152600490fd5b331614905089806102de565b60005260046000fd5b6001600160a01b03602435811691821591908215610ddc575b5050610dca5761016435600160fd1b166102aa57610d3f8684613cf4565b906014821015610d51575b50506102aa565b610d5b8282612c8a565b60601c82601411610235576014610d7b9360131901920190843091613356565b50610d8760e435612f11565b15610d94575b8080610d4a565b6000526005602052604060002086600052602052604060002054610db85788610d8d565b60405163c5f2be5160e01b8152600490fd5b604051635cd5d23360e01b8152600490fd5b9091506000906001600160ff1b0381166fa2a8918ca85bafe22016d0b997e4df5f600160ff1b038110610e17575b5050168114158a80610d21565b60209250600091608091604051918d835260ff1c601b0185830152610104356040830152606082015282805260015afa506000518b80610e0a565b3461023557602036600319011261023557610e6b612b65565b610e73613081565b6001600160a01b03908116908115610ec257600354826001600160601b0360a01b821617600355167f8be0079c531659141344cd1fd0a4f28419497f9722a3daafe3b4186f6b6457e0600080a3005b604051631e4fbdf760e01b815260006004820152602490fd5b34610235576060366003190112610235576020610f1f610ef9612b65565b6001600160a01b031660243560a01b176000908152600260205260409020546044351490565b6040519015158152f35b346102355736600319016101608112610235576101001361023557610104356001600160401b03811161023557610f64903690600401612b7b565b610124359190600061014435610f7b61028d612f57565b91610f8583613194565b9360a43595868614611575575b5050610f9c613589565b610fa4613858565b9015610cff575060e4359169ffffffffffffffffffff8084168015918215611569575b505015610ce15764ffffffffff808460501c16801515908161155f575b50610cc557600160fa1b841661151a575b50600160ff1b958187161561148d57858810156114865787965b8761101d8160c43585613dd4565b996001600160b81b0385169182611449575b5050505b84161515908161143e575b50610ace5786860215610abc5761105483612f11565b156114105760018060a01b03602435166000526004602052604060002063ffffffff8460801c16600160ff8660781c161b918160005280602052604060002054918380841614610a7c57600052602052176040600020555b600160fc1b918383166113ac575b6001600160a01b03927f000000000000000000000000000000000000000000000000000000000000000080851693909260643586168581148061139d575b801561139757305b600160f81b8a161561136d576111168480613c62565b9050610834578c61112e9185948b6024351690613a94565b61135d575b610623575090898992866084351686811493848095611355575b156112cf575050509150506107a3578790600160f71b8516156112545750600080809350809261117b613b6c565b5af1611185612e80565b50156106615784915b600160fb1b166111ca575b5060406105597ffec331350fce78ba658e082a71da20ac9f8d798a99b3c79681c8440cbfe77e079261058295613349565b90506024351691823b1561023557600060405180946323175ef160e11b82528183816111fd878c8c338c600487016132ec565b03925af1908115610a445761055985604092610582967ffec331350fce78ba658e082a71da20ac9f8d798a99b3c79681c8440cbfe77e0795611245575b509550925050611199565b61124e90612d2c565b8961123a565b6004600080938193630d0e30db60e41b83525af115610a445760206000604461127b613b6c565b6040519063a9059cbb60e01b825260048201528a602482015282855af190816112ac575b501561071357849161118e565b90503d156112c75750600160005114601f3d11165b8761129f565b3b15156112c1565b90919293809599975094611345575b84156113375730925b161561131e57906112fa92913390613a94565b611305575b5061118e565b6113189088611312613b6c565b91613b1a565b876112ff565b61132b9397503390613a03565b1561086c5786936112fa565b61133f613b6c565b926112e7565b600160f71b8716151594506112de565b50600061114d565b611368338c87613b1a565b611133565b61138b91928d61137d8680613c62565b9390928c6024351690613a3f565b1561099157819061112e565b33611100565b50600160fe1b831615156110f8565b6024356001600160a01b0316803b156102355760008988928a838a6113e960405197889687958694630986bdd560e01b86523390600487016132ec565b03925af18015610a44576113fe575b506110ba565b6114089150612d2c565b6000886113f8565b60018060a01b03602435166000526005602052604060002084600052602052858503196040600020556110ac565b90508614158861103e565b8181036114615750508911610b05575b89808061102f565b610b2861146e928d6131fb565b10156114595760405163fb8ae12960e01b8152600490fd5b859661100f565b60c435968861149d818a85613dad565b98888a116114fc575b506001600160b81b03841690816114bf575b5050611033565b8a8181036114d75750508810610b98575b89806114b8565b610b286114e4928c6131fb565b11156114d05760405163240f51c960e11b8152600490fd5b9850985061150c87809984613dd4565b98808a11610bf3578a6114a6565b61152384612f11565b610cb35760a084811c8216901b6024356001600160a01b031617600090815260026020526040902054607885901c90911603610ca15787610ff5565b9050421189610fe4565b33161490508880610fc7565b6020600080936040519080630b135d3f60e11b958684528a6004850152604060248501528160448501526064840137606401906024356001600160a01b03165afa6115c8575b5015610dca578680610f92565b600051143d602014169050876115bb565b346102355760206115f66115ec36612ba8565b9092919230612f31565b8192919261160b575b50506040519015158152f35b10905082806115ff565b346102355760203660031901126102355761162e612b4f565b6001600160601b0360a01b8160a01b1633176000526002602052604060002060018154018091556001600160601b036040519216825260208201527f099133aefc2c2d1e56f8ef3622ec8e80979a0713fc9c4e1497740efcf809939660403392a2005b34610235576040366003190112610235576001600160a01b036116b2612b65565b16600052600560205260406000206024356000526020526020604060002054604051908152f35b34610235576020610f1f6116ec36612ba8565b91612eb0565b34610235576020366003190112610235576004356001600160401b0381116102355761172e6117276020923690600401612b7b565b9030612f31565b8161173f575b506040519015158152f35b90501582611734565b346102355761175f61175936612c4b565b91612f31565b901561177057602090604051908152f35b604051631f1b8f6160e01b8152600490fd5b346102355760008061179336612c4b565b90816040519283928337810184815203915af46117ae612e80565b6040805163032695f960e31b81529215156004840152602483015281906117d9906044830190612bdb565b0390fd5b34610235576040366003190112610235576117fc602435600435612da1565b005b36600319016101808112610235576101001361023557610144356101243560006101643561182d61028d612f57565b9061183782613194565b9260a43594858514611c94575b5061184d613589565b611855613858565b9015610cff575060e4359169ffffffffffffffffffff8084168015918215611c88575b505015610ce15764ffffffffff808460501c168015159081611c7e575b50610cc557600160fa1b8416611c39575b50600160ff1b9581871615611bac5785881015611ba55787965b876118ce8160c43585613dd4565b996001600160b81b0385169182611b68575b5050505b841615159081611b5d575b50610ace5786860215610abc5761190583612f11565b15611b2f5760018060a01b03602435166000526004602052604060002063ffffffff8460801c16600160ff8660781c161b918160005280602052604060002054918380841614610a7c57600052602052176040600020555b600160fc1b91838316611acb575b6001600160a01b03927f0000000000000000000000000000000000000000000000000000000000000000808516939092606435861685811480611abc575b8015611ab657305b600160f81b8a1615611a9a576119c78480613c62565b9050610834578c6119df9185948b6024351690613a94565b611a8a575b6106235750608435851691848314918280611a81575b15611a5257505050508734106107a3578790813411611a31575b600160f71b8516156112545750600080809350809261117b613b6c565b906000808080933403335af1611a45612e80565b5015610661578790611a14565b909192969450346107a35789968b9284611345578415611337573092161561131e57906112fa92913390613a94565b503415156119fa565b611a95338c87613b1a565b6119e4565b611aaa91928d61137d8680613c62565b156109915781906119df565b336119b1565b50600160fe1b831615156119a9565b6024356001600160a01b0316803b156102355760008988928a838a611b0860405197889687958694630986bdd560e01b86523390600487016132ec565b03925af18015610a4457611b1d575b5061196b565b611b279150612d2c565b600088611b17565b60018060a01b036024351660005260056020526040600020846000526020528585031960406000205561195d565b9050861415886118ef565b818103611b805750508911610b05575b8980806118e0565b610b28611b8d928d6131fb565b1015611b785760405163fb8ae12960e01b8152600490fd5b85966118c0565b60c4359688611bbc818a85613dad565b98888a11611c1b575b506001600160b81b0384169081611bde575b50506118e4565b8a818103611bf65750508810610b98575b8980611bd7565b610b28611c03928c6131fb565b1115611bef5760405163240f51c960e11b8152600490fd5b98509850611c2b87809984613dd4565b98808a11610bf3578a611bc5565b611c4284612f11565b610cb35760a084811c8216901b6024356001600160a01b031617600090815260026020526040902054607885901c90911603610ca157876118a6565b9050421189611895565b33161490508880611878565b6001600160a01b0360243581168015929091908315611cbb575b505050610dca5786611844565b919250906000906001600160ff1b0381166fa2a8918ca85bafe22016d0b997e4df5f600160ff1b038110611cf7575b5050161415878080611cae565b60209250600091608091604051918a835260ff1c601b0185830152610104356040830152606082015282805260015afa506000518980611cea565b34610235576000366003190112610235576003546040516001600160a01b039091168152602090f35b34610235576040366003190112610235576001600160401b0360043581811161023557611d8c903690600401612c1b565b909160243590811161023557611da6903690600401612c1b565b90818303611de45760005b838110611dba57005b80611dde611dcb6001938789612d7b565b35611dd7838787612d7b565b3590612da1565b01611db1565b604051631b2f9b3b60e31b8152600490fd5b3461023557600036600319011261023557611e307f00000000000000000000000000000000000000000000000000000000000000006135aa565b611e597f00000000000000000000000000000000000000000000000000000000000000006136cf565b6040516020808201928284106001600160401b03851117611f0057916020611eb38594611ea5979660405260008452604051978897600f60f81b895260e0858a015260e0890190612bdb565b908782036040890152612bdb565b91466060870152306080870152600060a087015285830360c0870152519182815201929160005b828110611ee957505050500390f35b835185528695509381019392810192600101611eda565b634e487b7160e01b600052604160045260246000fd5b3461023557600036600319011261023557611f2f613081565b611f37613589565b6003805460ff60a01b1916600160a01b1790556040513381527f62e78cea01bee320cd4e420270b5ea74000d11b0c9f74754ebdbfc544b05a25890602090a1005b346102355761010080600319360112610235576042602091610120611f9b612f57565b91604051907f3af21ec5a20011b88d3b7b4ed7c806cef05a5980cf34974bcd53566a131f7e4c8252600486830137206040519161190160f01b83526002830152602282015220604051908152f35b34610235576020610f1f611ffc36612ba8565b91612cd3565b346102355760003660031901126102355761201b613081565b600380546001600160a01b031981169091556000906001600160a01b03167f8be0079c531659141344cd1fd0a4f28419497f9722a3daafe3b4186f6b6457e08280a3005b346102355760206120726115ec36612ba8565b819291926120865750506040519015158152f35b14905082806115ff565b3461023557600036600319011261023557602060ff60035460a01c166040519015158152f35b6040366003190112610235576001600160401b03600435818111610235576120e2903690600401612b7b565b91602435908111610235576120fb903690600401612b7b565b6121088484959395612c8a565b60601c918060141161023557600093849361212f9260131901916014019030903390613356565b508060405194853783305af43d6000833e15612149573d90f35b3d90fd5b3461023557366003190161018081126102355761010013610235576001600160401b036101043581811161023557612189903690600401612b7b565b9161016435908111610235576121a66121b0913690600401612b7b565b90610144356130ad565b9591926121c261028d96929596612f57565b946121cc86613194565b9360009360a43586146127e0575b50506121e4613589565b6121ee85836137b9565b9015610cff575069ffffffffffffffffffff8060e4351680159182156127d4575b505015610ce15764ffffffffff8060e43560501c1680151590816127ca575b50610cc55760e435600160fa1b1661277f575b5084612740575b61014435600160ff1b161561269b578361012435106000146126945761012435975b889761227988878c8a88613991565b99610144356001600160b81b03169081612652575b50505b60e435600160ff1b16151580612646575b610ace5789890215610abc576122b960e435612f11565b15612618576024356001600160a01b0316600090815260046020908152604080832060e435608081901c63ffffffff168552928190529220549190600160789190911c60ff161b80831614610a7c5763ffffffff60e43560801c16600052602052600160ff60e43560781c161b176040600020555b60e435600160fc1b16612563575b6064356001600160a01b039081167f00000000000000000000000000000000000000000000000000000000000000009091161480612551575b801561254b57305b8a60e435600160f81b161561252757506123978987613c62565b9050610834576123ba908b906001600160a01b0360243581169060643516613a94565b6124f6575b506013811161247b575b50506001600160a01b036084358116907f00000000000000000000000000000000000000000000000000000000000000001681148080612473575b1561242b575050866107a35760e435600160f71b161561067357818080808a610504613b6c565b90949080612462575b801561245557305b61014435600160fc1b1615610846576107e48385613c93565b61245d613b6c565b61243c565b5060e435600160f71b161515612434565b506000612404565b6124858183612c8a565b60601c918160141161092f57823b1561092f57839260148680946124d08c958f8f8e918e916040519c8d9b8c9a8b9963adf38ba160e01b8b5260131901970195339260048b01613284565b03925af1801561092457908391156123c9576124eb90612d2c565b6109205781886123c9565b61252190897f0000000000000000000000000000000000000000000000000000000000000000613b1a565b896123bf565b612535916109728b89613c62565b6123ba57604051630e1407e960e31b8152600490fd5b8161237d565b5061014435600160fe1b161515612375565b61256d8785613c2f565b6001600160a01b0360243581168284601382116125ec575b50508181163b15610235578b60008f938f966125c28f91978f9885998f996040519c8d9b8c9a8b98630986bdd560e01b8a52339260048b01613284565b0393165af18015610a44576125d8575b5061233c565b6125e3919550612d2c565b6000938a6125d2565b8195508094506125fc9250612c8a565b60601c9183601411610235576014019260131901918e80612585565b60018060a01b036024351660005260056020526040600020886000526020528886031960406000205561232e565b5060a4358914156122a2565b61012435810361266b57508a11610b05575b8a8061228e565b61267c90610b28610124358e6131fb565b10156126645760405163fb8ae12960e01b8152600490fd5b839761226a565b61012435976126ad87868b89876138da565b9785891161270f575b610144356001600160b81b0316806126cf575b50612291565b610124358b036126e6578910610b98575b8a6126c9565b6126f78b610b28610124358d6131fb565b11156126e05760405163240f51c960e11b8152600490fd5b9850965083966127228786808987613991565b98610124358a11156126b657604051637f902a9360e01b8152600490fd5b61274a8583613be2565b80612757575b5050612248565b6127619130612f31565b81612774575b5015610c39578880612750565b600191501489612767565b61278a60e435612f11565b610cb35760e43560a081811c8316901b6024356001600160a01b03161760009081526002602052604090205460789190911c90911603610ca15788612241565b905042118a61222e565b3316149050898061220f565b6020600080936040519080630b135d3f60e11b958684528d6004850152604060248501528160448501526064840137606401906024356001600160a01b03165afa612833575b5015610dca5788806121da565b600051143d60201416905089612826565b346102355760206128576115ec36612ba8565b8192919261286b5750506040519015158152f35b11905082806115ff565b34610235576040366003190112610235576001600160a01b03612896612b65565b166000526005602052604060002060243560005260205260406000205480156128c55760209060405190198152f35b60405163aa3eef9560e01b8152600490fd5b34610235576000366003190112610235576128f0613081565b60035460ff8160a01c16156129375760ff60a01b19166003556040513381527f5db9ee0a495bf2e6ff9c91a7834c1ba4fdd244a5e8aa4e537bd38aeae4b073aa90602090a1005b604051638dfc202b60e01b8152600490fd5b34610235576000366003190112610235576020612964612f57565b604051908152f35b34610235576020366003190112610235576004356001600160401b038111610235576129a16117276020923690600401612b7b565b816129b157506040519015158152f35b600191501482611734565b34610235576040366003190112610235576001600160a01b036129dd612b65565b166000526004602052604060002060243560081c6000526020526020604060002054604051908152f35b3461023557604036600319011261023557612a20612b4f565b60243580158015612aa4575b612a92576001600160601b0360a01b8260a01b16331760005260026020526040600020908154018091556001600160601b036040519216825260208201527f099133aefc2c2d1e56f8ef3622ec8e80979a0713fc9c4e1497740efcf809939660403392a2005b60405163555fbbbf60e01b8152600490fd5b5060ff8111612a2c565b346102355760403660031901126102355760043590612acc82612f11565b15612b40575033600052600460205260406000209063ffffffff8160801c169182600052602052604060002090600160ff6024359260781c161b1781541780915560405191825260208201527fcda0f7e73d07bdb14b141f2cf4745926629a1b63e7c6a3dd8a80232cb459a85060403392a2005b63435ffd6560e11b8152600490fd5b600435906001600160601b038216820361023557565b600435906001600160a01b038216820361023557565b9181601f84011215610235578235916001600160401b038311610235576020838186019501011161023557565b9060406003198301126102355760043591602435906001600160401b03821161023557612bd791600401612b7b565b9091565b919082519283825260005b848110612c07575050826000602080949584010152601f8019910116010190565b602081830181015184830182015201612be6565b9181601f84011215610235578235916001600160401b038311610235576020808501948460051b01011161023557565b906040600319830112610235576004356001600160a01b03811681036102355791602435906001600160401b03821161023557612bd791600401612b7b565b6bffffffffffffffffffffffff199035818116939260148110612cac57505050565b60140360031b82901b16169150565b90939293848311610235578411610235578101920390565b9290919260005b63ffffffff8216908115612d215761172782612cf7928888612cbb565b81612d16575b50612d0c579060201c90612cda565b5050915050600190565b600191501438612cfd565b505050915050600090565b6001600160401b038111611f0057604052565b604081019081106001600160401b03821117611f0057604052565b90601f801991011681019081106001600160401b03821117611f0057604052565b9190811015612d8b5760051b0190565b634e487b7160e01b600052603260045260246000fd5b90612dab82612f11565b15612e1a575033600052600460205260406000209063ffffffff8160801c169182600052602052600160ff60406000209260781c161b81541780915560405191825260208201527fcda0f7e73d07bdb14b141f2cf4745926629a1b63e7c6a3dd8a80232cb459a85060403392a2565b7f5152abf959f6564662358c2e52b702259b78bac5ee7842a0f01937e670efcc7d915060209033600052600582526040600020816000528252600019604060002055604051908152a1565b6001600160401b038111611f0057601f01601f191660200190565b3d15612eab573d90612e9182612e65565b91612e9f6040519384612d5a565b82523d6000602084013e565b606090565b9290919260009060005b63ffffffff8216908115612f055761172782612ed7928989612cbb565b9015908115612ef9575b50612ef0579060201c90612eba565b50509150915090565b60019150141538612ee1565b50505050915050600190565b600160ff1b81161580159190612f25575090565b600160fe1b1615919050565b916000906020928294826040519283375afa60203d14169182612f5057565b6000519150565b307f00000000000000000000000000000000000000000000000000000000000000006001600160a01b03161480613058575b15612fb2577f000000000000000000000000000000000000000000000000000000000000000090565b60405160208101907f8b73c3c69bb8fe3d512ecc4cf759cc79239f7b179b0ffacaa9a75d522b39400f82527f000000000000000000000000000000000000000000000000000000000000000060408201527f000000000000000000000000000000000000000000000000000000000000000060608201524660808201523060a082015260a0815260c081018181106001600160401b03821117611f005760405251902090565b507f00000000000000000000000000000000000000000000000000000000000000004614612f89565b6003546001600160a01b0316330361309557565b60405163118cdaa760e01b8152336004820152602490fd5b90929190600160fb1b81161561313a576130c78285612c8a565b60601c9382601411610235576014019160131901925b62ffffff60e083901c811694851561312a5780861161023557613104908596818197612cbb565b919091935b60c81c1692831561311e578311610235579190565b50509050600090600090565b9293909450600094600094613109565b339391926130dd565b6042906101206040517f3af21ec5a20011b88d3b7b4ed7c806cef05a5980cf34974bcd53566a131f7e4c815261010060046020830137206040519161190160f01b8352600283015260228201522090565b61319f60e435612f11565b156131c4575060a435905b81156131b257565b604051637b8fded160e11b8152600490fd5b60018060a01b036024351660005260056020526040600020906000526020526131f560406000205460a435906137a8565b906131aa565b8181029291811591840414171561320e57565b634e487b7160e01b600052601160045260246000fd5b6004358152602435602082015260443560408201526064356060820152608435608082015260a43560a082015260c43560c082015260e060e435910152565b908060209392818452848401376000828201840152601f01601f1916010190565b94916132e9999794916132b091999794996101e06132a189613224565b806101008a0152880191613263565b6101208601989098526001600160a01b03166101408501526101608401526101808301526101a08201528084036101c090910152613263565b90565b93600093610220969293856101e061330389613224565b806101008a01528801526102009461012088015260018060a01b03166101408701526101608601526101808501526101a0840152806101c0840152820152016000815290565b9190820391821161320e57565b919093600094938594613367613b8d565b906040519484918260641461352457826048146134b3578260e01461349157826101001461346d57826060146133df575050610160146133be5750639fd5a6cf60e01b8352849160049181908584013701925af190565b6302b67b5760e41b84526101649450859250906101609060048501375af190565b88955060409250906101649760209495926302b67b5760e41b8952600489015260248801526014826050890137851965ffffffffffff9181601485013560e01c01831660648a0152601884013560e01c60848a015260a4890152601c83013560e01c011660c487015261010060e48701528161010487015282808201610124880137016101448501375af190565b50506323f2ebc360e21b8552506101049486935091610100915060048501375af190565b505063d505accf60e01b85525060e4948693509160e0915060048501375af190565b909150879450610104969392506323f2ebc360e21b86526004860152602485015260206008602883013592803560e01c60448801528519600482013560e01c016064880152600160848801528360ff1c601b0160a48801520160c48601376001600160ff1b031660e48401525af190565b90915087945060e49693925063d505accf60e01b865260048601526024850152602060246044830135928281604489013785198382013560e01c0160648801528360ff1c601b0160848801520160a48601376001600160ff1b031660c48401525af190565b60ff60035460a01c1661359857565b60405163d93c066560e01b8152600490fd5b60ff81146135e85760ff811690601f82116135d657604051916135cc83612d3f565b8252602082015290565b604051632cd44ac360e21b8152600490fd5b50604051600080549060018260011c90600184169384156136c5575b60209485841081146136b157838752869493929181156136915750600114613635575b50506132e992500382612d5a565b60008080527f290decd9548b62a8d60345a988386fc84ba6bc95484008f6362f93160ef3e56395935091905b8183106136795750506132e993508201013880613627565b85548784018501529485019486945091830191613661565b9150506132e994925060ff191682840152151560051b8201013880613627565b634e487b7160e01b85526022600452602485fd5b91607f1691613604565b60ff81146136f15760ff811690601f82116135d657604051916135cc83612d3f565b506040516000600190600154918260011c906001841693841561379e575b60209485841081146136b15783875286949392918115613691575060011461373f5750506132e992500382612d5a565b9093915060016000527fb10e2d527612073b26eecdfd717e6a320cf44b4afac2b0732d9fcbe2b7fa0cf6936000915b8183106137865750506132e993508201013880613627565b8554878401850152948501948694509183019161376e565b91607f169161370f565b9081156137b457501990565b905090565b9060e435600160f91b1615613843578015613833576137d781612e65565b906137e56040519283612d5a565b8082526020820192368282011161023557816000926020928637830101525190206001600160a01b0390811660043590911603613825575b600190600090565b60009063dc11ee6b60e01b90565b5060009163b2d25e4960e01b9150565b90501561381d576000906374896a7b60e01b90565b600060e435600160f91b1615613874579063b2d25e4960e01b90565b50600190600090565b93906138a7906132e99997949896936101c061389888613224565b80610100890152870191613263565b6101208501979097526001600160a01b03166101408401526101608301526101808201528084036101a090910152613263565b939190926138e88486613d27565b9092811561397b576138fa8285612c8a565b60601c938260141161023557602096601494613936936040519a8b998a988998631d9671c360e01b8a5260131901960194339260048a0161387d565b03915afa908115610a445760009161394c575090565b90506020813d602011613973575b8161396760209383612d5a565b81010312610235575190565b3d915061395a565b9450505050506132e9915060c43560a435613dad565b9391909261399f8486613d5a565b909281156139ed576139b18285612c8a565b60601c938260141161023557602096601494613936936040519a8b998a9889986301afff1560e71b8a5260131901960194339260048a0161387d565b9450505050506132e9915060c43560a435613dd4565b9060006064926020958295604051946323b872dd60e01b86526004860152602485015260448401525af1600160005114601f3d11163d15171690565b92948060009581602098889596604051976323b872dd60e01b8952600489015260248801526044870152613a88575b5050606401925af1600160005114601f3d11163d15171690565b60648501378038613a6e565b9291906001600160a01b038311613b0857608490613ab0613b8d565b94600094859460405193631b63c28b60e11b8552600485015260248401526044830152606482015282855af19081613afd575b5015613aeb57565b60405163f405907160e01b8152600490fd5b90503b151538613ae3565b604051638112e11960e01b8152600490fd5b916024926000809481808094632e1a7d4d60e01b8252876004525af11561062657306001600160a01b03821603613b5057505050565b8280809381935af115613b605750565b604051903d90823e3d90fd5b6001600160a01b036044358116908115613b84575090565b90506024351690565b468061014414613bce578061012c14613bce5761010414613bbb576e22d473030f116ddee9f6b43ac78ba390565b6e225e31d15943971f47ad3022f714fa90565b506e225e31d15943971f47ad3022f714fa90565b91909160208310613c265780359063ffffffff808360601c169260801c1693601f19018411613c15578101602001920390565b6309605a0160e41b60005260046000fd5b50600091508190565b91909160208310613c265780359063ffffffff808360a01c169260c01c1693601f19018411613c15578101602001920390565b91909160208310613c265780359063ffffffff918060201b8316921693601f19018411613c15578101602001920390565b91909160208310613c265780359063ffffffff8083169260201c1693601f19018411613c15578101602001920390565b91909160208310613c265780359063ffffffff8260c01c169160e01c93601f19018411613c15578101602001920390565b91909160208310613c265780359063ffffffff808360801c169260a01c1693601f19018411613c15578101602001920390565b91909160208310613c265780359063ffffffff808360201c169260401c1693601f19018411613c15578101602001920390565b91909160208310613c265780359063ffffffff808360401c169260601c1693601f19018411613c15578101602001920390565b8115613d97570490565b634e487b7160e01b600052601260045260246000fd5b80831760801c15613dca57613dc5906132e9936131fb565b613d8d565b6132e99202613d8d565b9181811760801c15613e0a5790613dea916131fb565b9080820180921161320e57600019820191821161320e576132e991613d8d565b6132e9929102810160001901613d8d56fea264697066735822122023596ff0556a06e3cace671a66103ff85982fe0a0f6b6ae30b3d3b6335c889e864736f6c63430008170033",
  "devdoc": {
    "errors": {
      "BitInvalidatedOrder()": [
        {
          "details": "The error is thrown when an attempt is made to invalidate an already invalidated entity."
        }
      ],
      "EnforcedPause()": [
        {
          "details": "The operation failed because the contract is paused."
        }
      ],
      "EthDepositRejected()": [
        {
          "details": "Error thrown when an ETH deposit from an EOA is attempted."
        }
      ],
      "ExpectedPause()": [
        {
          "details": "The operation failed because the contract is not paused."
        }
      ],
      "OwnableInvalidOwner(address)": [
        {
          "details": "The owner is not a valid owner account. (eg. `address(0)`)"
        }
      ],
      "OwnableUnauthorizedAccount(address)": [
        {
          "details": "The caller account is not authorized to perform an operation."
        }
      ],
      "RemainingInvalidatedOrder()": [
        {
          "details": "The error is thrown when an attempt is made to invalidate an already invalidated entity."
        }
      ]
    },
    "events": {
      "BitInvalidatorUpdated(address,uint256,uint256)": {
        "params": {
          "maker": "Maker address",
          "slotIndex": "Slot index that was updated",
          "slotValue": "New slot value"
        }
      },
      "EIP712DomainChanged()": {
        "details": "MAY be emitted to signal that the domain could have changed."
      },
      "OrderCancelled(bytes32)": {
        "params": {
          "orderHash": "Hash of the order"
        }
      },
      "OrderFilled(bytes32,uint256)": {
        "params": {
          "orderHash": "Hash of the order",
          "remainingAmount": "Amount of the maker asset that remains to be filled"
        }
      },
      "Paused(address)": {
        "details": "Emitted when the pause is triggered by `account`."
      },
      "Unpaused(address)": {
        "details": "Emitted when the pause is lifted by `account`."
      }
    },
    "kind": "dev",
    "methods": {
      "DOMAIN_SEPARATOR()": {
        "details": "Returns the domain separator for the current chain (EIP-712)"
      },
      "and(uint256,bytes)": {
        "returns": {
          "_0": "Result True if calls to all targets returned True. Otherwise, false"
        }
      },
      "arbitraryStaticCall(address,bytes)": {
        "returns": {
          "_0": "Result Bytes transmuted to uint256"
        }
      },
      "eip712Domain()": {
        "details": "See {IERC-5267}."
      },
      "epochEquals(address,uint256,uint256)": {
        "returns": {
          "_0": "Result True if `maker` has specified epoch. Otherwise, false"
        }
      },
      "eq(uint256,bytes)": {
        "params": {
          "value": "Value to test"
        },
        "returns": {
          "_0": "Result True if call to target returns the same value as `value`. Otherwise, false"
        }
      },
      "gt(uint256,bytes)": {
        "params": {
          "value": "Value to test"
        },
        "returns": {
          "_0": "Result True if call to target returns value which is bigger than `value`. Otherwise, false"
        }
      },
      "lt(uint256,bytes)": {
        "params": {
          "value": "Value to test"
        },
        "returns": {
          "_0": "Result True if call to target returns value which is lower than `value`. Otherwise, false"
        }
      },
      "not(bytes)": {
        "returns": {
          "_0": "Result True if call to target returns 0. Otherwise, false"
        }
      },
      "or(uint256,bytes)": {
        "returns": {
          "_0": "Result True if call to any target returned True. Otherwise, false"
        }
      },
      "owner()": {
        "details": "Returns the address of the current owner."
      },
      "paused()": {
        "details": "Returns true if the contract is paused, and false otherwise."
      },
      "permitAndCall(bytes,bytes)": {
        "params": {
          "action": "The data representing the action to be executed after the permit.",
          "permit": "ERC20 token address (20 bytes) concatenated with the permit data, allowing this contract to spend the token. Format: [token address (20 bytes)][permit data]"
        }
      },
      "renounceOwnership()": {
        "details": "Leaves the contract without owner. It will not be possible to call `onlyOwner` functions. Can only be called by the current owner. NOTE: Renouncing ownership will leave the contract without an owner, thereby disabling any functionality that is only available to the owner."
      },
      "transferOwnership(address)": {
        "details": "Transfers ownership of the contract to a new account (`newOwner`). Can only be called by the current owner."
      }
    },
    "title": "##1inch Limit Order Protocol v4",
    "version": 1
  },
  "userdoc": {
    "events": {
      "BitInvalidatorUpdated(address,uint256,uint256)": {
        "notice": "Emitted when order with `useBitInvalidator` gets cancelled"
      },
      "OrderCancelled(bytes32)": {
        "notice": "Emitted when order without `useBitInvalidator` gets cancelled"
      },
      "OrderFilled(bytes32,uint256)": {
        "notice": "Emitted when order gets filled"
      }
    },
    "kind": "user",
    "methods": {
      "advanceEpoch(uint96,uint256)": {
        "notice": "Advances nonce by specified amount"
      },
      "and(uint256,bytes)": {
        "notice": "Calls every target with corresponding data"
      },
      "arbitraryStaticCall(address,bytes)": {
        "notice": "Performs an arbitrary call to target with data"
      },
      "bitInvalidatorForOrder(address,uint256)": {
        "notice": "See {IOrderMixin-bitInvalidatorForOrder}."
      },
      "bitsInvalidateForOrder(uint256,uint256)": {
        "notice": "See {IOrderMixin-bitsInvalidateForOrder}."
      },
      "cancelOrder(uint256,bytes32)": {
        "notice": "See {IOrderMixin-cancelOrder}."
      },
      "cancelOrders(uint256[],bytes32[])": {
        "notice": "See {IOrderMixin-cancelOrders}."
      },
      "checkPredicate(bytes)": {
        "notice": "See {IOrderMixin-checkPredicate}."
      },
      "epoch(address,uint96)": {
        "notice": "Returns nonce for `maker` and `series`"
      },
      "epochEquals(address,uint256,uint256)": {
        "notice": "Checks if `maker` has specified `makerEpoch` for `series`"
      },
      "eq(uint256,bytes)": {
        "notice": "Calls target with specified data and tests if it's equal to the value"
      },
      "fillContractOrder((uint256,uint256,uint256,uint256,uint256,uint256,uint256,uint256),bytes,uint256,uint256)": {
        "notice": "See {IOrderMixin-fillContractOrder}."
      },
      "fillContractOrderArgs((uint256,uint256,uint256,uint256,uint256,uint256,uint256,uint256),bytes,uint256,uint256,bytes)": {
        "notice": "See {IOrderMixin-fillContractOrderArgs}."
      },
      "fillOrder((uint256,uint256,uint256,uint256,uint256,uint256,uint256,uint256),bytes32,bytes32,uint256,uint256)": {
        "notice": "See {IOrderMixin-fillOrder}."
      },
      "fillOrderArgs((uint256,uint256,uint256,uint256,uint256,uint256,uint256,uint256),bytes32,bytes32,uint256,uint256,bytes)": {
        "notice": "See {IOrderMixin-fillOrderArgs}."
      },
      "gt(uint256,bytes)": {
        "notice": "Calls target with specified data and tests if it's bigger than value"
      },
      "hashOrder((uint256,uint256,uint256,uint256,uint256,uint256,uint256,uint256))": {
        "notice": "See {IOrderMixin-hashOrder}."
      },
      "increaseEpoch(uint96)": {
        "notice": "Advances nonce by one"
      },
      "lt(uint256,bytes)": {
        "notice": "Calls target with specified data and tests if it's lower than value"
      },
      "not(bytes)": {
        "notice": "Calls target with specified data and tests if it's equal to 0"
      },
      "or(uint256,bytes)": {
        "notice": "Calls every target with corresponding data"
      },
      "pause()": {
        "notice": "Pauses all the trading functionality in the contract."
      },
      "permitAndCall(bytes,bytes)": {
        "notice": "Executes a permit for an ERC20 token and then a specified action in a single transaction."
      },
      "rawRemainingInvalidatorForOrder(address,bytes32)": {
        "notice": "See {IOrderMixin-rawRemainingInvalidatorForOrder}."
      },
      "remainingInvalidatorForOrder(address,bytes32)": {
        "notice": "See {IOrderMixin-remainingInvalidatorForOrder}."
      },
      "simulate(address,bytes)": {
        "notice": "See {IOrderMixin-simulate}."
      },
      "unpause()": {
        "notice": "Unpauses all the trading functionality in the contract."
      }
    },
    "notice": "Limit order protocol provides two different order types - Regular Limit Order - RFQ Order Both types provide similar order-fulfilling functionality. The difference is that regular order offers more customization options and features, while RFQ order is extremely gas efficient but without ability to customize. Regular limit order additionally supports - Execution predicates. Conditions for order execution are set with predicates. For example, expiration timestamp or block number, price for stop loss or take profit strategies. - Callbacks to notify maker on order execution See [OrderMixin](OrderMixin.md) for more details. RFQ orders supports - Expiration time - Cancelation by order id - Partial Fill (only once) See [OrderMixin](OrderMixin.md) for more details.",
    "version": 1
  },
  "storageLayout": {
    "storage": [
      {
        "astId": 7841,
        "contract": "contracts/1inch/limit-order-protocol/LimitOrderProtocol.sol:LimitOrderProtocol",
        "label": "_nameFallback",
        "offset": 0,
        "slot": "0",
        "type": "t_string_storage"
      },
      {
        "astId": 7843,
        "contract": "contracts/1inch/limit-order-protocol/LimitOrderProtocol.sol:LimitOrderProtocol",
        "label": "_versionFallback",
        "offset": 0,
        "slot": "1",
        "type": "t_string_storage"
      },
      {
        "astId": 19863,
        "contract": "contracts/1inch/limit-order-protocol/LimitOrderProtocol.sol:LimitOrderProtocol",
        "label": "_epochs",
        "offset": 0,
        "slot": "2",
        "type": "t_mapping(t_uint256,t_uint256)"
      },
      {
        "astId": 5107,
        "contract": "contracts/1inch/limit-order-protocol/LimitOrderProtocol.sol:LimitOrderProtocol",
        "label": "_owner",
        "offset": 0,
        "slot": "3",
        "type": "t_address"
      },
      {
        "astId": 6766,
        "contract": "contracts/1inch/limit-order-protocol/LimitOrderProtocol.sol:LimitOrderProtocol",
        "label": "_paused",
        "offset": 20,
        "slot": "3",
        "type": "t_bool"
      },
      {
        "astId": 14490,
        "contract": "contracts/1inch/limit-order-protocol/LimitOrderProtocol.sol:LimitOrderProtocol",
        "label": "_bitInvalidator",
        "offset": 0,
        "slot": "4",
        "type": "t_mapping(t_address,t_struct(Data)20721_storage)"
      },
      {
        "astId": 14497,
        "contract": "contracts/1inch/limit-order-protocol/LimitOrderProtocol.sol:LimitOrderProtocol",
        "label": "_remainingInvalidator",
        "offset": 0,
        "slot": "5",
        "type": "t_mapping(t_address,t_mapping(t_bytes32,t_userDefinedValueType(RemainingInvalidator)21490))"
      }
    ],
    "types": {
      "t_address": {
        "encoding": "inplace",
        "label": "address",
        "numberOfBytes": "20"
      },
      "t_bool": {
        "encoding": "inplace",
        "label": "bool",
        "numberOfBytes": "1"
      },
      "t_bytes32": {
        "encoding": "inplace",
        "label": "bytes32",
        "numberOfBytes": "32"
      },
      "t_mapping(t_address,t_mapping(t_bytes32,t_userDefinedValueType(RemainingInvalidator)21490))": {
        "encoding": "mapping",
        "key": "t_address",
        "label": "mapping(address => mapping(bytes32 => RemainingInvalidator))",
        "numberOfBytes": "32",
        "value": "t_mapping(t_bytes32,t_userDefinedValueType(RemainingInvalidator)21490)"
      },
      "t_mapping(t_address,t_struct(Data)20721_storage)": {
        "encoding": "mapping",
        "key": "t_address",
        "label": "mapping(address => struct BitInvalidatorLib.Data)",
        "numberOfBytes": "32",
        "value": "t_struct(Data)20721_storage"
      },
      "t_mapping(t_bytes32,t_userDefinedValueType(RemainingInvalidator)21490)": {
        "encoding": "mapping",
        "key": "t_bytes32",
        "label": "mapping(bytes32 => RemainingInvalidator)",
        "numberOfBytes": "32",
        "value": "t_userDefinedValueType(RemainingInvalidator)21490"
      },
      "t_mapping(t_uint256,t_uint256)": {
        "encoding": "mapping",
        "key": "t_uint256",
        "label": "mapping(uint256 => uint256)",
        "numberOfBytes": "32",
        "value": "t_uint256"
      },
      "t_string_storage": {
        "encoding": "bytes",
        "label": "string",
        "numberOfBytes": "32"
      },
      "t_struct(Data)20721_storage": {
        "encoding": "inplace",
        "label": "struct BitInvalidatorLib.Data",
        "members": [
          {
            "astId": 20720,
            "contract": "contracts/1inch/limit-order-protocol/LimitOrderProtocol.sol:LimitOrderProtocol",
            "label": "_raw",
            "offset": 0,
            "slot": "0",
            "type": "t_mapping(t_uint256,t_uint256)"
          }
        ],
        "numberOfBytes": "32"
      },
      "t_uint256": {
        "encoding": "inplace",
        "label": "uint256",
        "numberOfBytes": "32"
      },
      "t_userDefinedValueType(RemainingInvalidator)21490": {
        "encoding": "inplace",
        "label": "RemainingInvalidator",
        "numberOfBytes": "32"
      }
    }
  }
}